{
  "contractName": "AuditLog",
  "abi": [
    {
      "anonymous": false,
      "inputs": [
        {
          "indexed": true,
          "internalType": "uint256",
          "name": "id",
          "type": "uint256"
        },
        {
          "indexed": false,
          "internalType": "string",
          "name": "eventType",
          "type": "string"
        },
        {
          "indexed": true,
          "internalType": "address",
          "name": "actor",
          "type": "address"
        },
        {
          "indexed": false,
          "internalType": "string",
          "name": "description",
          "type": "string"
        },
        {
          "indexed": false,
          "internalType": "uint256",
          "name": "timestamp",
          "type": "uint256"
        }
      ],
      "name": "EventLogged",
      "type": "event"
    },
    {
      "inputs": [
        {
          "internalType": "string",
          "name": "eventType",
          "type": "string"
        },
        {
          "internalType": "address",
          "name": "actor",
          "type": "address"
        },
        {
          "internalType": "string",
          "name": "description",
          "type": "string"
        }
      ],
      "name": "logEvent",
      "outputs": [],
      "stateMutability": "nonpayable",
      "type": "function"
    },
    {
      "inputs": [],
      "name": "getEntryCount",
      "outputs": [
        {
          "internalType": "uint256",
          "name": "",
          "type": "uint256"
        }
      ],
      "stateMutability": "view",
      "type": "function"
    },
    {
      "inputs": [
        {
          "internalType": "uint256",
          "name": "id",
          "type": "uint256"
        }
      ],
      "name": "getEntry",
      "outputs": [
        {
          "components": [
            {
              "internalType": "string",
              "name": "eventType",
              "type": "string"
            },
            {
              "internalType": "address",
              "name": "actor",
              "type": "address"
            },
            {
              "internalType": "string",
              "name": "description",
              "type": "string"
            },
            {
              "internalType": "uint256",
              "name": "timestamp",
              "type": "uint256"
            }
          ],
          "internalType": "struct AuditLog.LogEntry",
          "name": "",
          "type": "tuple"
        }
      ],
      "stateMutability": "view",
      "type": "function"
    }
  ],
  "bytecode": "0x608060405234801561001057600080fd5b50610c6f806100206000396000f3fe608060405234801561001057600080fd5b50600436106100415760003560e01c80637a360e6514610046578063bae78d7b14610064578063faf324fd14610094575b600080fd5b61004e6100b0565b60405161005b91906104eb565b60405180910390f35b61007e6004803603810190610079919061053c565b6100bc565b60405161008b91906106b3565b60405180910390f35b6100ae60048036038101906100a99190610766565b6102c3565b005b60008080549050905090565b6100c4610494565b600080549050821061010b576040517f08c379a000000000000000000000000000000000000000000000000000000000815260040161010290610858565b60405180910390fd5b6000828154811061011f5761011e610878565b5b9060005260206000209060040201604051806080016040529081600082018054610148906108d6565b80601f0160208091040260200160405190810160405280929190818152602001828054610174906108d6565b80156101c15780601f10610196576101008083540402835291602001916101c1565b820191906000526020600020905b8154815290600101906020018083116101a457829003601f168201915b505050505081526020016001820160009054906101000a900473ffffffffffffffffffffffffffffffffffffffff1673ffffffffffffffffffffffffffffffffffffffff1673ffffffffffffffffffffffffffffffffffffffff168152602001600282018054610230906108d6565b80601f016020809104026020016040519081016040528092919081815260200182805461025c906108d6565b80156102a95780601f1061027e576101008083540402835291602001916102a9565b820191906000526020600020905b81548152906001019060200180831161028c57829003601f168201915b505050505081526020016003820154815250509050919050565b6000808054905090506000604051806080016040528088888080601f016020809104026020016040519081016040528093929190818152602001838380828437600081840152601f19601f8201169050808301925050505050505081526020018673ffffffffffffffffffffffffffffffffffffffff16815260200185858080601f016020809104026020016040519081016040528093929190818152602001838380828437600081840152601f19601f82011690508083019250505050505050815260200142815250908060018154018082558091505060019003906000526020600020906004020160009091909190915060008201518160000190816103cb9190610ae2565b5060208201518160010160006101000a81548173ffffffffffffffffffffffffffffffffffffffff021916908373ffffffffffffffffffffffffffffffffffffffff16021790555060408201518160020190816104289190610ae2565b506060820151816003015550508373ffffffffffffffffffffffffffffffffffffffff16817f65cdfd8a89680fa53d214105be649c3a9835b012b835814eda35622883c4c6858888878742604051610484959493929190610bf0565b60405180910390a3505050505050565b604051806080016040528060608152602001600073ffffffffffffffffffffffffffffffffffffffff16815260200160608152602001600081525090565b6000819050919050565b6104e5816104d2565b82525050565b600060208201905061050060008301846104dc565b92915050565b600080fd5b600080fd5b610519816104d2565b811461052457600080fd5b50565b60008135905061053681610510565b92915050565b60006020828403121561055257610551610506565b5b600061056084828501610527565b91505092915050565b600081519050919050565b600082825260208201905092915050565b60005b838110156105a3578082015181840152602081019050610588565b60008484015250505050565b6000601f19601f8301169050919050565b60006105cb82610569565b6105d58185610574565b93506105e5818560208601610585565b6105ee816105af565b840191505092915050565b600073ffffffffffffffffffffffffffffffffffffffff82169050919050565b6000610624826105f9565b9050919050565b61063481610619565b82525050565b610643816104d2565b82525050565b6000608083016000830151848203600086015261066682826105c0565b915050602083015161067b602086018261062b565b506040830151848203604086015261069382826105c0565b91505060608301516106a8606086018261063a565b508091505092915050565b600060208201905081810360008301526106cd8184610649565b905092915050565b600080fd5b600080fd5b600080fd5b60008083601f8401126106fa576106f96106d5565b5b8235905067ffffffffffffffff811115610717576107166106da565b5b602083019150836001820283011115610733576107326106df565b5b9250929050565b61074381610619565b811461074e57600080fd5b50565b6000813590506107608161073a565b92915050565b60008060008060006060868803121561078257610781610506565b5b600086013567ffffffffffffffff8111156107a05761079f61050b565b5b6107ac888289016106e4565b955095505060206107bf88828901610751565b935050604086013567ffffffffffffffff8111156107e0576107df61050b565b5b6107ec888289016106e4565b92509250509295509295909350565b600082825260208201905092915050565b7f41756469744c6f673a206f7574206f662072616e676500000000000000000000600082015250565b60006108426016836107fb565b915061084d8261080c565b602082019050919050565b6000602082019050818103600083015261087181610835565b9050919050565b7f4e487b7100000000000000000000000000000000000000000000000000000000600052603260045260246000fd5b7f4e487b7100000000000000000000000000000000000000000000000000000000600052602260045260246000fd5b600060028204905060018216806108ee57607f821691505b602082108103610901576109006108a7565b5b50919050565b7f4e487b7100000000000000000000000000000000000000000000000000000000600052604160045260246000fd5b60008190508160005260206000209050919050565b60006020601f8301049050919050565b600082821b905092915050565b6000600883026109987fffffffffffffffffffffffffffffffffffffffffffffffffffffffffffffffff8261095b565b6109a2868361095b565b95508019841693508086168417925050509392505050565b6000819050919050565b60006109df6109da6109d5846104d2565b6109ba565b6104d2565b9050919050565b6000819050919050565b6109f9836109c4565b610a0d610a05826109e6565b848454610968565b825550505050565b600090565b610a22610a15565b610a2d8184846109f0565b505050565b5b81811015610a5157610a46600082610a1a565b600181019050610a33565b5050565b601f821115610a9657610a6781610936565b610a708461094b565b81016020851015610a7f578190505b610a93610a8b8561094b565b830182610a32565b50505b505050565b600082821c905092915050565b6000610ab960001984600802610a9b565b1980831691505092915050565b6000610ad28383610aa8565b9150826002028217905092915050565b610aeb82610569565b67ffffffffffffffff811115610b0457610b03610907565b5b610b0e82546108d6565b610b19828285610a55565b600060209050601f831160018114610b4c5760008415610b3a578287015190505b610b448582610ac6565b865550610bac565b601f198416610b5a86610936565b60005b82811015610b8257848901518255600182019150602085019450602081019050610b5d565b86831015610b9f5784890151610b9b601f891682610aa8565b8355505b6001600288020188555050505b505050505050565b82818337600083830152505050565b6000610bcf83856107fb565b9350610bdc838584610bb4565b610be5836105af565b840190509392505050565b60006060820190508181036000830152610c0b818789610bc3565b90508181036020830152610c20818587610bc3565b9050610c2f60408301846104dc565b969550505050505056fea26469706673582212208492602af6167798150525c85ecb19cbd9139e651b9d6e5de042cfbb27336dc364736f6c63430008140033",
  "immutableReferences": {},
  "source": "// SPDX-License-Identifier: MIT\npragma solidity ^0.8.20;\n\n/**\n * AuditLog.sol\n *\n * Append-only, on-chain event log.\n * No function to delete entries — immutability guaranteed.\n *\n * Events emitted on every write so off-chain indexers can track them.\n */\ncontract AuditLog {\n    struct LogEntry {\n        string   eventType;    // e.g. \"RoleGranted\", \"ExamSubmitted\"\n        address  actor;        // who triggered it\n        string   description;  // human-readable detail\n        uint256  timestamp;    // block.timestamp\n    }\n\n    LogEntry[] private _entries;\n\n    event EventLogged(\n        uint256 indexed id,\n        string  eventType,\n        address indexed actor,\n        string  description,\n        uint256 timestamp\n    );\n\n    function logEvent(\n        string calldata eventType,\n        address actor,\n        string calldata description\n    ) external {\n        uint256 id = _entries.length;\n        _entries.push(LogEntry(eventType, actor, description, block.timestamp));\n        emit EventLogged(id, eventType, actor, description, block.timestamp);\n    }\n\n    function getEntryCount() external view returns (uint256) {\n        return _entries.length;\n    }\n\n    function getEntry(uint256 id) external view returns (LogEntry memory) {\n        require(id < _entries.length, \"AuditLog: out of range\");\n        return _entries[id];\n    }\n}\n",
  "sourcePath": "D:\\Downloads\\chainedu-nexus-main\\chainedu-nexus-main\\backend\\contracts\\AuditLog.sol",
  "compiler": {
    "name": "solc",
    "version": "0.8.20+commit.a1b79de6.Emscripten.clang"
  },
  "schemaVersion": "3.4.16",
  "updatedAt": "2026-03-29T18:42:39.538Z",
  "devdoc": {
    "kind": "dev",
    "methods": {},
    "version": 1
  },
  "userdoc": {
    "kind": "user",
    "methods": {},
    "notice": "AuditLog.sol Append-only, on-chain event log. No function to delete entries — immutability guaranteed. Events emitted on every write so off-chain indexers can track them.",
    "version": 1
  }
}