{
  "contractName": "ExamManager",
  "abi": [
    {
      "inputs": [
        {
          "internalType": "address",
          "name": "_roleManager",
          "type": "address"
        },
        {
          "internalType": "address",
          "name": "_auditLog",
          "type": "address"
        }
      ],
      "stateMutability": "nonpayable",
      "type": "constructor"
    },
    {
      "anonymous": false,
      "inputs": [
        {
          "indexed": true,
          "internalType": "uint256",
          "name": "examId",
          "type": "uint256"
        },
        {
          "indexed": true,
          "internalType": "address",
          "name": "teacher",
          "type": "address"
        },
        {
          "indexed": false,
          "internalType": "uint256",
          "name": "startTime",
          "type": "uint256"
        },
        {
          "indexed": false,
          "internalType": "uint256",
          "name": "duration",
          "type": "uint256"
        }
      ],
      "name": "ExamScheduled",
      "type": "event"
    },
    {
      "anonymous": false,
      "inputs": [
        {
          "indexed": true,
          "internalType": "uint256",
          "name": "examId",
          "type": "uint256"
        },
        {
          "indexed": false,
          "internalType": "bool",
          "name": "active",
          "type": "bool"
        }
      ],
      "name": "ExamStatusToggled",
      "type": "event"
    },
    {
      "anonymous": false,
      "inputs": [
        {
          "indexed": true,
          "internalType": "uint256",
          "name": "examId",
          "type": "uint256"
        },
        {
          "indexed": true,
          "internalType": "address",
          "name": "teacher",
          "type": "address"
        }
      ],
      "name": "ExamUpdated",
      "type": "event"
    },
    {
      "anonymous": false,
      "inputs": [
        {
          "indexed": true,
          "internalType": "uint256",
          "name": "examId",
          "type": "uint256"
        },
        {
          "indexed": true,
          "internalType": "address",
          "name": "student",
          "type": "address"
        },
        {
          "indexed": false,
          "internalType": "uint8",
          "name": "disconnectCount",
          "type": "uint8"
        }
      ],
      "name": "StudentDisconnectLogged",
      "type": "event"
    },
    {
      "anonymous": false,
      "inputs": [
        {
          "indexed": true,
          "internalType": "uint256",
          "name": "examId",
          "type": "uint256"
        },
        {
          "indexed": true,
          "internalType": "address",
          "name": "student",
          "type": "address"
        },
        {
          "indexed": true,
          "internalType": "address",
          "name": "teacher",
          "type": "address"
        }
      ],
      "name": "StudentRestartAllowed",
      "type": "event"
    },
    {
      "inputs": [],
      "name": "MAX_STUDENTS",
      "outputs": [
        {
          "internalType": "uint256",
          "name": "",
          "type": "uint256"
        }
      ],
      "stateMutability": "view",
      "type": "function"
    },
    {
      "inputs": [],
      "name": "auditLog",
      "outputs": [
        {
          "internalType": "contract AuditLog",
          "name": "",
          "type": "address"
        }
      ],
      "stateMutability": "view",
      "type": "function"
    },
    {
      "inputs": [],
      "name": "examCount",
      "outputs": [
        {
          "internalType": "uint256",
          "name": "",
          "type": "uint256"
        }
      ],
      "stateMutability": "view",
      "type": "function"
    },
    {
      "inputs": [
        {
          "internalType": "uint256",
          "name": "",
          "type": "uint256"
        }
      ],
      "name": "exams",
      "outputs": [
        {
          "internalType": "string",
          "name": "encryptedPaperCID",
          "type": "string"
        },
        {
          "internalType": "string",
          "name": "encryptedAnswerCID",
          "type": "string"
        },
        {
          "internalType": "address",
          "name": "teacher",
          "type": "address"
        },
        {
          "internalType": "string",
          "name": "name",
          "type": "string"
        },
        {
          "internalType": "uint256",
          "name": "startTime",
          "type": "uint256"
        },
        {
          "internalType": "uint256",
          "name": "duration",
          "type": "uint256"
        },
        {
          "internalType": "bool",
          "name": "active",
          "type": "bool"
        }
      ],
      "stateMutability": "view",
      "type": "function"
    },
    {
      "inputs": [],
      "name": "roleManager",
      "outputs": [
        {
          "internalType": "contract RoleManager",
          "name": "",
          "type": "address"
        }
      ],
      "stateMutability": "view",
      "type": "function"
    },
    {
      "inputs": [
        {
          "internalType": "uint256",
          "name": "",
          "type": "uint256"
        },
        {
          "internalType": "address",
          "name": "",
          "type": "address"
        }
      ],
      "name": "studentExamStates",
      "outputs": [
        {
          "internalType": "bool",
          "name": "restartAllowed",
          "type": "bool"
        },
        {
          "internalType": "uint8",
          "name": "disconnectCount",
          "type": "uint8"
        },
        {
          "internalType": "bool",
          "name": "submitted",
          "type": "bool"
        },
        {
          "internalType": "bool",
          "name": "paused",
          "type": "bool"
        }
      ],
      "stateMutability": "view",
      "type": "function"
    },
    {
      "inputs": [
        {
          "internalType": "string",
          "name": "encryptedPaperCID",
          "type": "string"
        },
        {
          "internalType": "string",
          "name": "encryptedAnswerCID",
          "type": "string"
        },
        {
          "internalType": "string",
          "name": "name",
          "type": "string"
        },
        {
          "internalType": "uint256",
          "name": "startTime",
          "type": "uint256"
        },
        {
          "internalType": "uint256",
          "name": "duration",
          "type": "uint256"
        },
        {
          "internalType": "address[]",
          "name": "allowedStudents",
          "type": "address[]"
        }
      ],
      "name": "scheduleExam",
      "outputs": [
        {
          "internalType": "uint256",
          "name": "examId",
          "type": "uint256"
        }
      ],
      "stateMutability": "nonpayable",
      "type": "function"
    },
    {
      "inputs": [
        {
          "internalType": "uint256",
          "name": "examId",
          "type": "uint256"
        },
        {
          "internalType": "string",
          "name": "newAnswerCID",
          "type": "string"
        }
      ],
      "name": "updateAnswerCID",
      "outputs": [],
      "stateMutability": "nonpayable",
      "type": "function"
    },
    {
      "inputs": [
        {
          "internalType": "uint256",
          "name": "examId",
          "type": "uint256"
        },
        {
          "internalType": "address",
          "name": "student",
          "type": "address"
        }
      ],
      "name": "permitStudentRestart",
      "outputs": [],
      "stateMutability": "nonpayable",
      "type": "function"
    },
    {
      "inputs": [
        {
          "internalType": "uint256",
          "name": "examId",
          "type": "uint256"
        }
      ],
      "name": "logDisconnect",
      "outputs": [],
      "stateMutability": "nonpayable",
      "type": "function"
    },
    {
      "inputs": [
        {
          "internalType": "uint256",
          "name": "examId",
          "type": "uint256"
        }
      ],
      "name": "consumeRestart",
      "outputs": [],
      "stateMutability": "nonpayable",
      "type": "function"
    },
    {
      "inputs": [
        {
          "internalType": "uint256",
          "name": "examId",
          "type": "uint256"
        }
      ],
      "name": "markSubmitted",
      "outputs": [],
      "stateMutability": "nonpayable",
      "type": "function"
    },
    {
      "inputs": [
        {
          "internalType": "uint256",
          "name": "examId",
          "type": "uint256"
        }
      ],
      "name": "toggleExamStatus",
      "outputs": [],
      "stateMutability": "nonpayable",
      "type": "function"
    },
    {
      "inputs": [
        {
          "internalType": "uint256",
          "name": "examId",
          "type": "uint256"
        },
        {
          "internalType": "address",
          "name": "student",
          "type": "address"
        }
      ],
      "name": "toggleStudentPause",
      "outputs": [],
      "stateMutability": "nonpayable",
      "type": "function"
    },
    {
      "inputs": [
        {
          "internalType": "uint256",
          "name": "examId",
          "type": "uint256"
        },
        {
          "internalType": "address",
          "name": "student",
          "type": "address"
        }
      ],
      "name": "isAllowed",
      "outputs": [
        {
          "internalType": "bool",
          "name": "",
          "type": "bool"
        }
      ],
      "stateMutability": "view",
      "type": "function"
    },
    {
      "inputs": [
        {
          "internalType": "uint256",
          "name": "examId",
          "type": "uint256"
        }
      ],
      "name": "isExamLive",
      "outputs": [
        {
          "internalType": "bool",
          "name": "",
          "type": "bool"
        }
      ],
      "stateMutability": "view",
      "type": "function"
    },
    {
      "inputs": [
        {
          "internalType": "uint256",
          "name": "examId",
          "type": "uint256"
        },
        {
          "internalType": "address",
          "name": "student",
          "type": "address"
        }
      ],
      "name": "canStudentStart",
      "outputs": [
        {
          "internalType": "bool",
          "name": "",
          "type": "bool"
        }
      ],
      "stateMutability": "view",
      "type": "function"
    },
    {
      "inputs": [
        {
          "internalType": "uint256",
          "name": "examId",
          "type": "uint256"
        }
      ],
      "name": "getExam",
      "outputs": [
        {
          "internalType": "string",
          "name": "paperCID",
          "type": "string"
        },
        {
          "internalType": "string",
          "name": "answerCID",
          "type": "string"
        },
        {
          "internalType": "address",
          "name": "teacher",
          "type": "address"
        },
        {
          "internalType": "string",
          "name": "name",
          "type": "string"
        },
        {
          "internalType": "uint256",
          "name": "startTime",
          "type": "uint256"
        },
        {
          "internalType": "uint256",
          "name": "duration",
          "type": "uint256"
        },
        {
          "internalType": "bool",
          "name": "active",
          "type": "bool"
        }
      ],
      "stateMutability": "view",
      "type": "function"
    },
    {
      "inputs": [
        {
          "internalType": "uint256",
          "name": "examId",
          "type": "uint256"
        }
      ],
      "name": "getAllowedStudents",
      "outputs": [
        {
          "internalType": "address[]",
          "name": "",
          "type": "address[]"
        }
      ],
      "stateMutability": "view",
      "type": "function"
    },
    {
      "inputs": [
        {
          "internalType": "uint256",
          "name": "examId",
          "type": "uint256"
        },
        {
          "internalType": "address",
          "name": "student",
          "type": "address"
        }
      ],
      "name": "getStudentState",
      "outputs": [
        {
          "internalType": "bool",
          "name": "restartAllowed",
          "type": "bool"
        },
        {
          "internalType": "uint8",
          "name": "disconnectCount",
          "type": "uint8"
        },
        {
          "internalType": "bool",
          "name": "submitted",
          "type": "bool"
        }
      ],
      "stateMutability": "view",
      "type": "function"
    }
  ],
  "bytecode": "0x60806040523480156200001157600080fd5b5060405162003fda38038062003fda83398181016040528101906200003791906200012a565b816000806101000a81548173ffffffffffffffffffffffffffffffffffffffff021916908373ffffffffffffffffffffffffffffffffffffffff16021790555080600160006101000a81548173ffffffffffffffffffffffffffffffffffffffff021916908373ffffffffffffffffffffffffffffffffffffffff160217905550505062000171565b600080fd5b600073ffffffffffffffffffffffffffffffffffffffff82169050919050565b6000620000f282620000c5565b9050919050565b6200010481620000e5565b81146200011057600080fd5b50565b6000815190506200012481620000f9565b92915050565b60008060408385031215620001445762000143620000c0565b5b6000620001548582860162000113565b9250506020620001678582860162000113565b9150509250929050565b613e5980620001816000396000f3fe608060405234801561001057600080fd5b506004361061012b5760003560e01c80635faa299a116100ad578063bae3d60811610071578063bae3d6081461035d578063e5290b8e1461038f578063e6913bdb146103bf578063ef4fb187146103db578063f97563d5146103f75761012b565b80635faa299a146102a9578063762ee82e146102d95780637d9a6b2a146102f55780638445eac314610311578063abdc78761461032d5761012b565b80632f97932e116100f45780632f97932e146101d957806337cf294b146101f55780633d71ee27146102255780634198cb3f146102555780635a2d6ebd1461028b5761012b565b8062435da5146101305780630dfb1dbf1461014e5780630e5f792b1461016c578063182da9bf1461018857806322af68b4146101bb575b600080fd5b61013861042d565b60405161014591906127bf565b60405180910390f35b610156610451565b60405161016391906127f3565b60405180910390f35b61018660048036038101906101819190612882565b610457565b005b6101a2600480360381019061019d9190612882565b61079c565b6040516101b294939291906128f9565b60405180910390f35b6101c361080d565b6040516101d091906127f3565b60405180910390f35b6101f360048036038101906101ee9190612882565b610812565b005b61020f600480360381019061020a919061293e565b610ac3565b60405161021c919061296b565b60405180910390f35b61023f600480360381019061023a9190612882565b610dec565b60405161024c919061296b565b60405180910390f35b61026f600480360381019061026a919061293e565b610f19565b6040516102829796959493929190612a25565b60405180910390f35b610293611120565b6040516102a09190612aca565b60405180910390f35b6102c360048036038101906102be9190612882565b611146565b6040516102d0919061296b565b60405180910390f35b6102f360048036038101906102ee919061293e565b61126a565b005b61030f600480360381019061030a919061293e565b611445565b005b61032b6004803603810190610326919061293e565b611677565b005b6103476004803603810190610342919061293e565b61186e565b6040516103549190612ba3565b60405180910390f35b61037760048036038101906103729190612882565b611912565b60405161038693929190612bc5565b60405180910390f35b6103a960048036038101906103a49190612cb7565b611a00565b6040516103b691906127f3565b60405180910390f35b6103d960048036038101906103d4919061293e565b611f4b565b005b6103f560048036038101906103f09190612dc7565b6120f4565b005b610411600480360381019061040c919061293e565b612365565b6040516104249796959493929190612a25565b60405180910390f35b60008054906101000a900473ffffffffffffffffffffffffffffffffffffffff1681565b60035481565b8160008111801561046a57506003548111155b6104a9576040517f08c379a00000000000000000000000000000000000000000000000000000000081526004016104a090612e73565b60405180910390fd5b823373ffffffffffffffffffffffffffffffffffffffff166002600083815260200190815260200160002060020160009054906101000a900473ffffffffffffffffffffffffffffffffffffffff1673ffffffffffffffffffffffffffffffffffffffff161461054e576040517f08c379a000000000000000000000000000000000000000000000000000000000815260040161054590612edf565b60405180910390fd5b6004600085815260200190815260200160002060008473ffffffffffffffffffffffffffffffffffffffff1673ffffffffffffffffffffffffffffffffffffffff16815260200190815260200160002060000160039054906101000a900460ff16156004600086815260200190815260200160002060008573ffffffffffffffffffffffffffffffffffffffff1673ffffffffffffffffffffffffffffffffffffffff16815260200190815260200160002060000160036101000a81548160ff021916908315150217905550600160009054906101000a900473ffffffffffffffffffffffffffffffffffffffff1673ffffffffffffffffffffffffffffffffffffffff1663faf324fd6004600087815260200190815260200160002060008673ffffffffffffffffffffffffffffffffffffffff1673ffffffffffffffffffffffffffffffffffffffff16815260200190815260200160002060000160039054906101000a900460ff166106f8576040518060400160405280600e81526020017f53747564656e74526573756d656400000000000000000000000000000000000081525061072f565b6040518060400160405280600d81526020017f53747564656e74506175736564000000000000000000000000000000000000008152505b85600260008981526020019081526020016000206003016040518463ffffffff1660e01b815260040161076493929190612ff8565b600060405180830381600087803b15801561077e57600080fd5b505af1158015610792573d6000803e3d6000fd5b5050505050505050565b6004602052816000526040600020602052806000526040600020600091509150508060000160009054906101000a900460ff16908060000160019054906101000a900460ff16908060000160029054906101000a900460ff16908060000160039054906101000a900460ff16905084565b60c881565b8160008111801561082557506003548111155b610864576040517f08c379a000000000000000000000000000000000000000000000000000000000815260040161085b90612e73565b60405180910390fd5b823373ffffffffffffffffffffffffffffffffffffffff166002600083815260200190815260200160002060020160009054906101000a900473ffffffffffffffffffffffffffffffffffffffff1673ffffffffffffffffffffffffffffffffffffffff1614610909576040517f08c379a000000000000000000000000000000000000000000000000000000000815260040161090090612edf565b60405180910390fd5b6109138484611146565b610952576040517f08c379a000000000000000000000000000000000000000000000000000000000815260040161094990613089565b60405180910390fd5b60016004600086815260200190815260200160002060008573ffffffffffffffffffffffffffffffffffffffff1673ffffffffffffffffffffffffffffffffffffffff16815260200190815260200160002060000160006101000a81548160ff021916908315150217905550600160009054906101000a900473ffffffffffffffffffffffffffffffffffffffff1673ffffffffffffffffffffffffffffffffffffffff1663faf324fd84600260008881526020019081526020016000206003016040518363ffffffff1660e01b8152600401610a309291906130f5565b600060405180830381600087803b158015610a4a57600080fd5b505af1158015610a5e573d6000803e3d6000fd5b505050503373ffffffffffffffffffffffffffffffffffffffff168373ffffffffffffffffffffffffffffffffffffffff16857f1111c2a086f75ca8bb94451d4c3d16d994d8945ab5c55f76460a181478f6350660405160405180910390a450505050565b6000806002600084815260200190815260200160002060405180610100016040529081600082018054610af590612f2e565b80601f0160208091040260200160405190810160405280929190818152602001828054610b2190612f2e565b8015610b6e5780601f10610b4357610100808354040283529160200191610b6e565b820191906000526020600020905b815481529060010190602001808311610b5157829003601f168201915b50505050508152602001600182018054610b8790612f2e565b80601f0160208091040260200160405190810160405280929190818152602001828054610bb390612f2e565b8015610c005780601f10610bd557610100808354040283529160200191610c00565b820191906000526020600020905b815481529060010190602001808311610be357829003601f168201915b505050505081526020016002820160009054906101000a900473ffffffffffffffffffffffffffffffffffffffff1673ffffffffffffffffffffffffffffffffffffffff1673ffffffffffffffffffffffffffffffffffffffff168152602001600382018054610c6f90612f2e565b80601f0160208091040260200160405190810160405280929190818152602001828054610c9b90612f2e565b8015610ce85780601f10610cbd57610100808354040283529160200191610ce8565b820191906000526020600020905b815481529060010190602001808311610ccb57829003601f168201915b5050505050815260200160048201548152602001600582015481526020016006820160009054906101000a900460ff1615151515815260200160078201805480602002602001604051908101604052809291908181526020018280548015610da557602002820191906000526020600020905b8160009054906101000a900473ffffffffffffffffffffffffffffffffffffffff1673ffffffffffffffffffffffffffffffffffffffff1681526020019060010190808311610d5b575b50505050508152505090508060c001518015610dc5575080608001514210155b8015610de457508060a001518160800151610de09190613167565b4211155b915050919050565b6000806004600085815260200190815260200160002060008473ffffffffffffffffffffffffffffffffffffffff1673ffffffffffffffffffffffffffffffffffffffff1681526020019081526020016000206040518060800160405290816000820160009054906101000a900460ff161515151581526020016000820160019054906101000a900460ff1660ff1660ff1681526020016000820160029054906101000a900460ff161515151581526020016000820160039054906101000a900460ff161515151581525050905060006003826020015160ff1610905060008260600151159050610edd8686611146565b8015610eee5750610eed86610ac3565b5b8015610efc57508260400151155b8015610f055750815b8015610f0e5750805b935050505092915050565b6002602052806000526040600020600091509050806000018054610f3c90612f2e565b80601f0160208091040260200160405190810160405280929190818152602001828054610f6890612f2e565b8015610fb55780601f10610f8a57610100808354040283529160200191610fb5565b820191906000526020600020905b815481529060010190602001808311610f9857829003601f168201915b505050505090806001018054610fca90612f2e565b80601f0160208091040260200160405190810160405280929190818152602001828054610ff690612f2e565b80156110435780601f1061101857610100808354040283529160200191611043565b820191906000526020600020905b81548152906001019060200180831161102657829003601f168201915b5050505050908060020160009054906101000a900473ffffffffffffffffffffffffffffffffffffffff169080600301805461107e90612f2e565b80601f01602080910402602001604051908101604052809291908181526020018280546110aa90612f2e565b80156110f75780601f106110cc576101008083540402835291602001916110f7565b820191906000526020600020905b8154815290600101906020018083116110da57829003601f168201915b5050505050908060040154908060050154908060060160009054906101000a900460ff16905087565b600160009054906101000a900473ffffffffffffffffffffffffffffffffffffffff1681565b600080600260008581526020019081526020016000206007018054806020026020016040519081016040528092919081815260200182805480156111df57602002820191906000526020600020905b8160009054906101000a900473ffffffffffffffffffffffffffffffffffffffff1673ffffffffffffffffffffffffffffffffffffffff1681526020019060010190808311611195575b5050505050905060005b815181101561125d578373ffffffffffffffffffffffffffffffffffffffff1682828151811061121c5761121b61319b565b5b602002602001015173ffffffffffffffffffffffffffffffffffffffff160361124a57600192505050611264565b8080611255906131ca565b9150506111e9565b5060009150505b92915050565b8060008111801561127d57506003548111155b6112bc576040517f08c379a00000000000000000000000000000000000000000000000000000000081526004016112b390612e73565b60405180910390fd5b60006004600084815260200190815260200160002060003373ffffffffffffffffffffffffffffffffffffffff1673ffffffffffffffffffffffffffffffffffffffff16815260200190815260200160002090508060000160009054906101000a900460ff16611361576040517f08c379a000000000000000000000000000000000000000000000000000000000815260040161135890613284565b60405180910390fd5b60008160000160006101000a81548160ff02191690831515021790555060008160000160016101000a81548160ff021916908360ff160217905550600160009054906101000a900473ffffffffffffffffffffffffffffffffffffffff1673ffffffffffffffffffffffffffffffffffffffff1663faf324fd33600260008781526020019081526020016000206003016040518363ffffffff1660e01b815260040161140e9291906132f0565b600060405180830381600087803b15801561142857600080fd5b505af115801561143c573d6000803e3d6000fd5b50505050505050565b8060008111801561145857506003548111155b611497576040517f08c379a000000000000000000000000000000000000000000000000000000000815260040161148e90612e73565b60405180910390fd5b6114a18233611146565b6114e0576040517f08c379a00000000000000000000000000000000000000000000000000000000081526004016114d79061337f565b60405180910390fd5b60006004600084815260200190815260200160002060003373ffffffffffffffffffffffffffffffffffffffff1673ffffffffffffffffffffffffffffffffffffffff168152602001908152602001600020905080600001600181819054906101000a900460ff16809291906115559061339f565b91906101000a81548160ff021916908360ff16021790555050600160009054906101000a900473ffffffffffffffffffffffffffffffffffffffff1673ffffffffffffffffffffffffffffffffffffffff1663faf324fd33600260008781526020019081526020016000206003016040518363ffffffff1660e01b81526004016115e0929190613414565b600060405180830381600087803b1580156115fa57600080fd5b505af115801561160e573d6000803e3d6000fd5b505050503373ffffffffffffffffffffffffffffffffffffffff16837f9cc37f482c9df905927a829caad5ea8333203707d8a7b0154f4cf0cbaff8e7bd8360000160019054906101000a900460ff1660405161166a9190613457565b60405180910390a3505050565b8060008111801561168a57506003548111155b6116c9576040517f08c379a00000000000000000000000000000000000000000000000000000000081526004016116c090612e73565b60405180910390fd5b6116d38233611146565b611712576040517f08c379a00000000000000000000000000000000000000000000000000000000081526004016117099061337f565b60405180910390fd5b61171b82610ac3565b61175a576040517f08c379a0000000000000000000000000000000000000000000000000000000008152600401611751906134be565b60405180910390fd5b60016004600084815260200190815260200160002060003373ffffffffffffffffffffffffffffffffffffffff1673ffffffffffffffffffffffffffffffffffffffff16815260200190815260200160002060000160026101000a81548160ff021916908315150217905550600160009054906101000a900473ffffffffffffffffffffffffffffffffffffffff1673ffffffffffffffffffffffffffffffffffffffff1663faf324fd33600260008681526020019081526020016000206003016040518363ffffffff1660e01b815260040161183892919061352a565b600060405180830381600087803b15801561185257600080fd5b505af1158015611866573d6000803e3d6000fd5b505050505050565b60606002600083815260200190815260200160002060070180548060200260200160405190810160405280929190818152602001828054801561190657602002820191906000526020600020905b8160009054906101000a900473ffffffffffffffffffffffffffffffffffffffff1673ffffffffffffffffffffffffffffffffffffffff16815260200190600101908083116118bc575b50505050509050919050565b6000806000806004600087815260200190815260200160002060008673ffffffffffffffffffffffffffffffffffffffff1673ffffffffffffffffffffffffffffffffffffffff1681526020019081526020016000206040518060800160405290816000820160009054906101000a900460ff161515151581526020016000820160019054906101000a900460ff1660ff1660ff1681526020016000820160029054906101000a900460ff161515151581526020016000820160039054906101000a900460ff1615151515815250509050806000015181602001518260400151935093509350509250925092565b60008060009054906101000a900473ffffffffffffffffffffffffffffffffffffffff1673ffffffffffffffffffffffffffffffffffffffff1663aec37eb3336040518263ffffffff1660e01b8152600401611a5c919061356d565b602060405180830381865afa158015611a79573d6000803e3d6000fd5b505050506040513d601f19601f82011682018060405250810190611a9d91906135b4565b611adc576040517f08c379a0000000000000000000000000000000000000000000000000000000008152600401611ad39061362d565b60405180910390fd5b428511611b1e576040517f08c379a0000000000000000000000000000000000000000000000000000000008152600401611b15906136bf565b60405180910390fd5b60008411611b61576040517f08c379a0000000000000000000000000000000000000000000000000000000008152600401611b5890613751565b60405180910390fd5b60008b8b905011611ba7576040517f08c379a0000000000000000000000000000000000000000000000000000000008152600401611b9e906137bd565b60405180910390fd5b60c8838390501115611bee576040517f08c379a0000000000000000000000000000000000000000000000000000000008152600401611be59061384f565b60405180910390fd5b60036000815480929190611c01906131ca565b919050555060035490506040518061010001604052808c8c8080601f016020809104026020016040519081016040528093929190818152602001838380828437600081840152601f19601f8201169050808301925050505050505081526020018a8a8080601f016020809104026020016040519081016040528093929190818152602001838380828437600081840152601f19601f8201169050808301925050505050505081526020013373ffffffffffffffffffffffffffffffffffffffff16815260200188888080601f016020809104026020016040519081016040528093929190818152602001838380828437600081840152601f19601f820116905080830192505050505050508152602001868152602001858152602001600115158152602001848480806020026020016040519081016040528093929190818152602001838360200280828437600081840152601f19601f82011690508083019250505050505050815250600260008381526020019081526020016000206000820151816000019081611d939190613a2b565b506020820151816001019081611da99190613a2b565b5060408201518160020160006101000a81548173ffffffffffffffffffffffffffffffffffffffff021916908373ffffffffffffffffffffffffffffffffffffffff1602179055506060820151816003019081611e069190613a2b565b506080820151816004015560a0820151816005015560c08201518160060160006101000a81548160ff02191690831515021790555060e0820151816007019080519060200190611e57929190612699565b50905050600160009054906101000a900473ffffffffffffffffffffffffffffffffffffffff1673ffffffffffffffffffffffffffffffffffffffff1663faf324fd3389896040518463ffffffff1660e01b8152600401611eba93929190613b85565b600060405180830381600087803b158015611ed457600080fd5b505af1158015611ee8573d6000803e3d6000fd5b505050503373ffffffffffffffffffffffffffffffffffffffff16817f3321e33c2cb98a1ff738bd5fc9f320060315389e68d25ebff34687552ef4a5c18787604051611f35929190613bca565b60405180910390a39a9950505050505050505050565b80600081118015611f5e57506003548111155b611f9d576040517f08c379a0000000000000000000000000000000000000000000000000000000008152600401611f9490612e73565b60405180910390fd5b813373ffffffffffffffffffffffffffffffffffffffff166002600083815260200190815260200160002060020160009054906101000a900473ffffffffffffffffffffffffffffffffffffffff1673ffffffffffffffffffffffffffffffffffffffff1614612042576040517f08c379a000000000000000000000000000000000000000000000000000000000815260040161203990612edf565b60405180910390fd5b6002600084815260200190815260200160002060060160009054906101000a900460ff16156002600085815260200190815260200160002060060160006101000a81548160ff021916908315150217905550827fe2305ea896be52e5bec437a27efad5b7cab166766d2115c504813725e6539e976002600086815260200190815260200160002060060160009054906101000a900460ff166040516120e7919061296b565b60405180910390a2505050565b8260008111801561210757506003548111155b612146576040517f08c379a000000000000000000000000000000000000000000000000000000000815260040161213d90612e73565b60405180910390fd5b833373ffffffffffffffffffffffffffffffffffffffff166002600083815260200190815260200160002060020160009054906101000a900473ffffffffffffffffffffffffffffffffffffffff1673ffffffffffffffffffffffffffffffffffffffff16146121eb576040517f08c379a00000000000000000000000000000000000000000000000000000000081526004016121e290612edf565b60405180910390fd5b610708600260008781526020019081526020016000206004015461220f9190613bf3565b4210612250576040517f08c379a000000000000000000000000000000000000000000000000000000000815260040161224790613c99565b60405180910390fd5b8383600260008881526020019081526020016000206001019182612275929190613cc4565b50600160009054906101000a900473ffffffffffffffffffffffffffffffffffffffff1673ffffffffffffffffffffffffffffffffffffffff1663faf324fd33600260008981526020019081526020016000206003016040518363ffffffff1660e01b81526004016122e8929190613de0565b600060405180830381600087803b15801561230257600080fd5b505af1158015612316573d6000803e3d6000fd5b505050503373ffffffffffffffffffffffffffffffffffffffff16857f16324accf289412f1a3e6252688d80cf0e6758f76e6521084d6c52e1057d40f360405160405180910390a35050505050565b60608060006060600080600080600260008a8152602001908152602001600020604051806101000160405290816000820180546123a190612f2e565b80601f01602080910402602001604051908101604052809291908181526020018280546123cd90612f2e565b801561241a5780601f106123ef5761010080835404028352916020019161241a565b820191906000526020600020905b8154815290600101906020018083116123fd57829003601f168201915b5050505050815260200160018201805461243390612f2e565b80601f016020809104026020016040519081016040528092919081815260200182805461245f90612f2e565b80156124ac5780601f10612481576101008083540402835291602001916124ac565b820191906000526020600020905b81548152906001019060200180831161248f57829003601f168201915b505050505081526020016002820160009054906101000a900473ffffffffffffffffffffffffffffffffffffffff1673ffffffffffffffffffffffffffffffffffffffff1673ffffffffffffffffffffffffffffffffffffffff16815260200160038201805461251b90612f2e565b80601f016020809104026020016040519081016040528092919081815260200182805461254790612f2e565b80156125945780601f1061256957610100808354040283529160200191612594565b820191906000526020600020905b81548152906001019060200180831161257757829003601f168201915b5050505050815260200160048201548152602001600582015481526020016006820160009054906101000a900460ff161515151581526020016007820180548060200260200160405190810160405280929190818152602001828054801561265157602002820191906000526020600020905b8160009054906101000a900473ffffffffffffffffffffffffffffffffffffffff1673ffffffffffffffffffffffffffffffffffffffff1681526020019060010190808311612607575b5050505050815250509050806000015181602001518260400151836060015184608001518560a001518660c00151975097509750975097509750975050919395979092949650565b828054828255906000526020600020908101928215612712579160200282015b828111156127115782518260006101000a81548173ffffffffffffffffffffffffffffffffffffffff021916908373ffffffffffffffffffffffffffffffffffffffff160217905550916020019190600101906126b9565b5b50905061271f9190612723565b5090565b5b8082111561273c576000816000905550600101612724565b5090565b600073ffffffffffffffffffffffffffffffffffffffff82169050919050565b6000819050919050565b600061278561278061277b84612740565b612760565b612740565b9050919050565b60006127978261276a565b9050919050565b60006127a98261278c565b9050919050565b6127b98161279e565b82525050565b60006020820190506127d460008301846127b0565b92915050565b6000819050919050565b6127ed816127da565b82525050565b600060208201905061280860008301846127e4565b92915050565b600080fd5b600080fd5b612821816127da565b811461282c57600080fd5b50565b60008135905061283e81612818565b92915050565b600061284f82612740565b9050919050565b61285f81612844565b811461286a57600080fd5b50565b60008135905061287c81612856565b92915050565b600080604083850312156128995761289861280e565b5b60006128a78582860161282f565b92505060206128b88582860161286d565b9150509250929050565b60008115159050919050565b6128d7816128c2565b82525050565b600060ff82169050919050565b6128f3816128dd565b82525050565b600060808201905061290e60008301876128ce565b61291b60208301866128ea565b61292860408301856128ce565b61293560608301846128ce565b95945050505050565b6000602082840312156129545761295361280e565b5b60006129628482850161282f565b91505092915050565b600060208201905061298060008301846128ce565b92915050565b600081519050919050565b600082825260208201905092915050565b60005b838110156129c05780820151818401526020810190506129a5565b60008484015250505050565b6000601f19601f8301169050919050565b60006129e882612986565b6129f28185612991565b9350612a028185602086016129a2565b612a0b816129cc565b840191505092915050565b612a1f81612844565b82525050565b600060e0820190508181036000830152612a3f818a6129dd565b90508181036020830152612a5381896129dd565b9050612a626040830188612a16565b8181036060830152612a7481876129dd565b9050612a8360808301866127e4565b612a9060a08301856127e4565b612a9d60c08301846128ce565b98975050505050505050565b6000612ab48261278c565b9050919050565b612ac481612aa9565b82525050565b6000602082019050612adf6000830184612abb565b92915050565b600081519050919050565b600082825260208201905092915050565b6000819050602082019050919050565b612b1a81612844565b82525050565b6000612b2c8383612b11565b60208301905092915050565b6000602082019050919050565b6000612b5082612ae5565b612b5a8185612af0565b9350612b6583612b01565b8060005b83811015612b96578151612b7d8882612b20565b9750612b8883612b38565b925050600181019050612b69565b5085935050505092915050565b60006020820190508181036000830152612bbd8184612b45565b905092915050565b6000606082019050612bda60008301866128ce565b612be760208301856128ea565b612bf460408301846128ce565b949350505050565b600080fd5b600080fd5b600080fd5b60008083601f840112612c2157612c20612bfc565b5b8235905067ffffffffffffffff811115612c3e57612c3d612c01565b5b602083019150836001820283011115612c5a57612c59612c06565b5b9250929050565b60008083601f840112612c7757612c76612bfc565b5b8235905067ffffffffffffffff811115612c9457612c93612c01565b5b602083019150836020820283011115612cb057612caf612c06565b5b9250929050565b60008060008060008060008060008060c08b8d031215612cda57612cd961280e565b5b60008b013567ffffffffffffffff811115612cf857612cf7612813565b5b612d048d828e01612c0b565b9a509a505060208b013567ffffffffffffffff811115612d2757612d26612813565b5b612d338d828e01612c0b565b985098505060408b013567ffffffffffffffff811115612d5657612d55612813565b5b612d628d828e01612c0b565b96509650506060612d758d828e0161282f565b9450506080612d868d828e0161282f565b93505060a08b013567ffffffffffffffff811115612da757612da6612813565b5b612db38d828e01612c61565b92509250509295989b9194979a5092959850565b600080600060408486031215612de057612ddf61280e565b5b6000612dee8682870161282f565b935050602084013567ffffffffffffffff811115612e0f57612e0e612813565b5b612e1b86828701612c0b565b92509250509250925092565b7f4578616d4d616e616765723a206578616d206e6f7420666f756e640000000000600082015250565b6000612e5d601b83612991565b9150612e6882612e27565b602082019050919050565b60006020820190508181036000830152612e8c81612e50565b9050919050565b7f4578616d4d616e616765723a206e6f74206578616d2773207465616368657200600082015250565b6000612ec9601f83612991565b9150612ed482612e93565b602082019050919050565b60006020820190508181036000830152612ef881612ebc565b9050919050565b7f4e487b7100000000000000000000000000000000000000000000000000000000600052602260045260246000fd5b60006002820490506001821680612f4657607f821691505b602082108103612f5957612f58612eff565b5b50919050565b60008190508160005260206000209050919050565b60008154612f8181612f2e565b612f8b8186612991565b94506001821660008114612fa65760018114612fbc57612fef565b60ff198316865281151560200286019350612fef565b612fc585612f5f565b60005b83811015612fe757815481890152600182019150602081019050612fc8565b808801955050505b50505092915050565b6000606082019050818103600083015261301281866129dd565b90506130216020830185612a16565b81810360408301526130338184612f74565b9050949350505050565b7f4578616d4d616e616765723a2073747564656e74206e6f7420696e206578616d600082015250565b6000613073602083612991565b915061307e8261303d565b602082019050919050565b600060208201905081810360008301526130a281613066565b9050919050565b7f526573746172745065726d697474656400000000000000000000000000000000600082015250565b60006130df601083612991565b91506130ea826130a9565b602082019050919050565b6000606082019050818103600083015261310e816130d2565b905061311d6020830185612a16565b818103604083015261312f8184612f74565b90509392505050565b7f4e487b7100000000000000000000000000000000000000000000000000000000600052601160045260246000fd5b6000613172826127da565b915061317d836127da565b925082820190508082111561319557613194613138565b5b92915050565b7f4e487b7100000000000000000000000000000000000000000000000000000000600052603260045260246000fd5b60006131d5826127da565b91507fffffffffffffffffffffffffffffffffffffffffffffffffffffffffffffffff820361320757613206613138565b5b600182019050919050565b7f4578616d4d616e616765723a2072657374617274206e6f74207065726d69747460008201527f6564000000000000000000000000000000000000000000000000000000000000602082015250565b600061326e602283612991565b915061327982613212565b604082019050919050565b6000602082019050818103600083015261329d81613261565b9050919050565b7f52657374617274436f6e73756d65640000000000000000000000000000000000600082015250565b60006132da600f83612991565b91506132e5826132a4565b602082019050919050565b60006060820190508181036000830152613309816132cd565b90506133186020830185612a16565b818103604083015261332a8184612f74565b90509392505050565b7f4578616d4d616e616765723a206e6f7420696e206578616d0000000000000000600082015250565b6000613369601883612991565b915061337482613333565b602082019050919050565b600060208201905081810360008301526133988161335c565b9050919050565b60006133aa826128dd565b915060ff82036133bd576133bc613138565b5b600182019050919050565b7f4e6574776f726b446973636f6e6e656374000000000000000000000000000000600082015250565b60006133fe601183612991565b9150613409826133c8565b602082019050919050565b6000606082019050818103600083015261342d816133f1565b905061343c6020830185612a16565b818103604083015261344e8184612f74565b90509392505050565b600060208201905061346c60008301846128ea565b92915050565b7f4578616d4d616e616765723a206578616d206e6f742061637469766500000000600082015250565b60006134a8601c83612991565b91506134b382613472565b602082019050919050565b600060208201905081810360008301526134d78161349b565b9050919050565b7f4578616d5375626d697474656400000000000000000000000000000000000000600082015250565b6000613514600d83612991565b915061351f826134de565b602082019050919050565b6000606082019050818103600083015261354381613507565b90506135526020830185612a16565b81810360408301526135648184612f74565b90509392505050565b60006020820190506135826000830184612a16565b92915050565b613591816128c2565b811461359c57600080fd5b50565b6000815190506135ae81613588565b92915050565b6000602082840312156135ca576135c961280e565b5b60006135d88482850161359f565b91505092915050565b7f4578616d4d616e616765723a206e6f7420612074656163686572000000000000600082015250565b6000613617601a83612991565b9150613622826135e1565b602082019050919050565b600060208201905081810360008301526136468161360a565b9050919050565b7f4578616d4d616e616765723a2073746172742074696d65206d7573742062652060008201527f696e206675747572650000000000000000000000000000000000000000000000602082015250565b60006136a9602983612991565b91506136b48261364d565b604082019050919050565b600060208201905081810360008301526136d88161369c565b9050919050565b7f4578616d4d616e616765723a206475726174696f6e206d757374206265203e2060008201527f3000000000000000000000000000000000000000000000000000000000000000602082015250565b600061373b602183612991565b9150613746826136df565b604082019050919050565b6000602082019050818103600083015261376a8161372e565b9050919050565b7f4578616d4d616e616765723a2070617065722043494420726571756972656400600082015250565b60006137a7601f83612991565b91506137b282613771565b602082019050919050565b600060208201905081810360008301526137d68161379a565b9050919050565b7f4578616d4d616e616765723a2073747564656e74206c6973742065786365656460008201527f7320323030206c696d6974000000000000000000000000000000000000000000602082015250565b6000613839602b83612991565b9150613844826137dd565b604082019050919050565b600060208201905081810360008301526138688161382c565b9050919050565b7f4e487b7100000000000000000000000000000000000000000000000000000000600052604160045260246000fd5b60006020601f8301049050919050565b600082821b905092915050565b6000600883026138eb7fffffffffffffffffffffffffffffffffffffffffffffffffffffffffffffffff826138ae565b6138f586836138ae565b95508019841693508086168417925050509392505050565b600061392861392361391e846127da565b612760565b6127da565b9050919050565b6000819050919050565b6139428361390d565b61395661394e8261392f565b8484546138bb565b825550505050565b600090565b61396b61395e565b613976818484613939565b505050565b5b8181101561399a5761398f600082613963565b60018101905061397c565b5050565b601f8211156139df576139b081612f5f565b6139b98461389e565b810160208510156139c8578190505b6139dc6139d48561389e565b83018261397b565b50505b505050565b600082821c905092915050565b6000613a02600019846008026139e4565b1980831691505092915050565b6000613a1b83836139f1565b9150826002028217905092915050565b613a3482612986565b67ffffffffffffffff811115613a4d57613a4c61386f565b5b613a578254612f2e565b613a6282828561399e565b600060209050601f831160018114613a955760008415613a83578287015190505b613a8d8582613a0f565b865550613af5565b601f198416613aa386612f5f565b60005b82811015613acb57848901518255600182019150602085019450602081019050613aa6565b86831015613ae85784890151613ae4601f8916826139f1565b8355505b6001600288020188555050505b505050505050565b7f4578616d5363686564756c656400000000000000000000000000000000000000600082015250565b6000613b33600d83612991565b9150613b3e82613afd565b602082019050919050565b82818337600083830152505050565b6000613b648385612991565b9350613b71838584613b49565b613b7a836129cc565b840190509392505050565b60006060820190508181036000830152613b9e81613b26565b9050613bad6020830186612a16565b8181036040830152613bc0818486613b58565b9050949350505050565b6000604082019050613bdf60008301856127e4565b613bec60208301846127e4565b9392505050565b6000613bfe826127da565b9150613c09836127da565b9250828203905081811115613c2157613c20613138565b5b92915050565b7f4578616d4d616e616765723a2075706461746573206c6f636b6564202877696e60008201527f646f7720636c6f7365732033306d206265666f72652073746172742900000000602082015250565b6000613c83603c83612991565b9150613c8e82613c27565b604082019050919050565b60006020820190508181036000830152613cb281613c76565b9050919050565b600082905092915050565b613cce8383613cb9565b67ffffffffffffffff811115613ce757613ce661386f565b5b613cf18254612f2e565b613cfc82828561399e565b6000601f831160018114613d2b5760008415613d19578287013590505b613d238582613a0f565b865550613d8b565b601f198416613d3986612f5f565b60005b82811015613d6157848901358255600182019150602085019450602081019050613d3c565b86831015613d7e5784890135613d7a601f8916826139f1565b8355505b6001600288020188555050505b50505050505050565b7f416e737765724349445570646174656400000000000000000000000000000000600082015250565b6000613dca601083612991565b9150613dd582613d94565b602082019050919050565b60006060820190508181036000830152613df981613dbd565b9050613e086020830185612a16565b8181036040830152613e1a8184612f74565b9050939250505056fea2646970667358221220b8e87df82f76f2eda424511f6edf04d0686187fa3973c1ad2f3efec2b0b5611464736f6c63430008140033",
  "immutableReferences": {},
  "source": "// SPDX-License-Identifier: MIT\npragma solidity ^0.8.20;\n\nimport \"./RoleManager.sol\";\nimport \"./AuditLog.sol\";\n\n/**\n * ExamManager.sol — Phase 2 upgrade\n *\n * New additions:\n *  ✅ Full exam struct: encrypted CID, answer CID, schedule, allowed students\n *  ✅ Scheduled start time enforcement\n *  ✅ Allowed-student list per exam\n *  ✅ Teacher-controlled student restart permission\n *  ✅ Network-loss restart logging (max 3 disconnects)\n *  ✅ Events for frontend subscriptions\n */\ncontract ExamManager {\n\n    RoleManager public roleManager;\n    AuditLog    public auditLog;\n\n    // ─── Structs ──────────────────────────────────────────────\n    struct Exam {\n        string   encryptedPaperCID;   // AES-encrypted paper stored in IPFS\n        string   encryptedAnswerCID;  // AES-encrypted answer key\n        address  teacher;\n        string   name;\n        uint256  startTime;           // Unix timestamp\n        uint256  duration;            // Seconds\n        bool     active;\n        address[] allowedStudents;\n    }\n\n    struct StudentExamState {\n        bool     restartAllowed;      // teacher permits restart\n        uint8    disconnectCount;     // incremented on each network loss restart\n        bool     submitted;\n        bool     paused;              // SEC-TC-030: Teacher can pause session\n    }\n\n    // ─── Storage ──────────────────────────────────────────────\n    mapping(uint256 => Exam) public exams;\n    uint256 public examCount;\n    uint256 public constant MAX_STUDENTS = 200; // SEC-TC-017: Prevent gas griefing\n\n    // examId => studentAddr => state\n    mapping(uint256 => mapping(address => StudentExamState)) public studentExamStates;\n\n    // ─── Events ───────────────────────────────────────────────\n    event ExamScheduled(uint256 indexed examId, address indexed teacher, uint256 startTime, uint256 duration);\n    event ExamUpdated(uint256 indexed examId, address indexed teacher);\n    event StudentRestartAllowed(uint256 indexed examId, address indexed student, address indexed teacher);\n    event StudentDisconnectLogged(uint256 indexed examId, address indexed student, uint8 disconnectCount);\n    event ExamStatusToggled(uint256 indexed examId, bool active);\n\n    // ─── Modifiers ────────────────────────────────────────────\n    modifier onlyTeacher() {\n        require(roleManager.isTeacher(msg.sender), \"ExamManager: not a teacher\");\n        _;\n    }\n\n    modifier onlyAdminOrTeacher() {\n        require(\n            roleManager.isAdmin(msg.sender) || roleManager.isTeacher(msg.sender),\n            \"ExamManager: not admin or teacher\"\n        );\n        _;\n    }\n\n    modifier examExists(uint256 examId) {\n        require(examId > 0 && examId <= examCount, \"ExamManager: exam not found\");\n        _;\n    }\n\n    modifier onlyExamTeacher(uint256 examId) {\n        require(exams[examId].teacher == msg.sender, \"ExamManager: not exam's teacher\");\n        _;\n    }\n\n    // ─── Constructor ──────────────────────────────────────────\n    constructor(address _roleManager, address _auditLog) {\n        roleManager = RoleManager(_roleManager);\n        auditLog    = AuditLog(_auditLog);\n    }\n\n    // ─── Teacher: Schedule exam ───────────────────────────────\n    function scheduleExam(\n        string  calldata encryptedPaperCID,\n        string  calldata encryptedAnswerCID,\n        string  calldata name,\n        uint256 startTime,\n        uint256 duration,\n        address[] calldata allowedStudents\n    ) external onlyTeacher returns (uint256 examId) {\n        require(startTime > block.timestamp, \"ExamManager: start time must be in future\");\n        require(duration > 0, \"ExamManager: duration must be > 0\");\n        require(bytes(encryptedPaperCID).length > 0, \"ExamManager: paper CID required\");\n        // SEC-TC-017: Gas griefing check\n        require(allowedStudents.length <= MAX_STUDENTS, \"ExamManager: student list exceeds 200 limit\");\n\n        examCount++;\n        examId = examCount;\n\n        exams[examId] = Exam({\n            encryptedPaperCID: encryptedPaperCID,\n            encryptedAnswerCID: encryptedAnswerCID,\n            teacher: msg.sender,\n            name: name,\n            startTime: startTime,\n            duration: duration,\n            active: true,\n            allowedStudents: allowedStudents\n        });\n\n        auditLog.logEvent(\"ExamScheduled\", msg.sender, name);\n        emit ExamScheduled(examId, msg.sender, startTime, duration);\n    }\n\n    // ─── Teacher: Update answer CID (after re-evaluation) ────\n    function updateAnswerCID(\n        uint256 examId,\n        string calldata newAnswerCID\n    ) external examExists(examId) onlyExamTeacher(examId) {\n        // SEC-TC-022: Prevent updates during or right before exam (30 min lock)\n        require(\n            block.timestamp < exams[examId].startTime - 30 minutes, \n            \"ExamManager: updates locked (window closes 30m before start)\"\n        );\n\n        exams[examId].encryptedAnswerCID = newAnswerCID;\n        auditLog.logEvent(\"AnswerCIDUpdated\", msg.sender, exams[examId].name);\n        emit ExamUpdated(examId, msg.sender);\n    }\n\n    // ─── Teacher: Permit student restart ─────────────────────\n    function permitStudentRestart(\n        uint256 examId,\n        address student\n    ) external examExists(examId) onlyExamTeacher(examId) {\n        require(isAllowed(examId, student), \"ExamManager: student not in exam\");\n        studentExamStates[examId][student].restartAllowed = true;\n        auditLog.logEvent(\"RestartPermitted\", student, exams[examId].name);\n        emit StudentRestartAllowed(examId, student, msg.sender);\n    }\n\n    // ─── Student: Log network disconnect ──────────────────────\n    function logDisconnect(uint256 examId) external examExists(examId) {\n        require(isAllowed(examId, msg.sender), \"ExamManager: not in exam\");\n        StudentExamState storage s = studentExamStates[examId][msg.sender];\n        s.disconnectCount++;\n        auditLog.logEvent(\"NetworkDisconnect\", msg.sender, exams[examId].name);\n        emit StudentDisconnectLogged(examId, msg.sender, s.disconnectCount);\n    }\n\n    // ─── Student: Consume restart permission ──────────────────\n    function consumeRestart(uint256 examId) external examExists(examId) {\n        StudentExamState storage s = studentExamStates[examId][msg.sender];\n        require(s.restartAllowed, \"ExamManager: restart not permitted\");\n        s.restartAllowed = false;\n        s.disconnectCount = 0;\n        auditLog.logEvent(\"RestartConsumed\", msg.sender, exams[examId].name);\n    }\n\n    // ─── Student: Mark submitted ──────────────────────────────\n    function markSubmitted(uint256 examId) external examExists(examId) {\n        require(isAllowed(examId, msg.sender), \"ExamManager: not in exam\");\n        require(isExamLive(examId), \"ExamManager: exam not active\");\n        studentExamStates[examId][msg.sender].submitted = true;\n        auditLog.logEvent(\"ExamSubmitted\", msg.sender, exams[examId].name);\n    }\n\n    // ─── Toggle exam active status ────────────────────────────\n    function toggleExamStatus(uint256 examId)\n        external examExists(examId) onlyExamTeacher(examId)\n    {\n        exams[examId].active = !exams[examId].active;\n        emit ExamStatusToggled(examId, exams[examId].active);\n    }\n\n    // ─── Teacher: Pause/Resume specific student (SEC-TC-030) ──\n    function toggleStudentPause(uint256 examId, address student)\n        external examExists(examId) onlyExamTeacher(examId)\n    {\n        studentExamStates[examId][student].paused = !studentExamStates[examId][student].paused;\n        auditLog.logEvent(\n            studentExamStates[examId][student].paused ? \"StudentPaused\" : \"StudentResumed\",\n            student,\n            exams[examId].name\n        );\n    }\n\n    // ─── View helpers ─────────────────────────────────────────\n    function isAllowed(uint256 examId, address student) public view returns (bool) {\n        address[] memory students = exams[examId].allowedStudents;\n        for (uint i = 0; i < students.length; i++) {\n            if (students[i] == student) return true;\n        }\n        return false;\n    }\n\n    function isExamLive(uint256 examId) public view returns (bool) {\n        Exam memory e = exams[examId];\n        return (\n            e.active &&\n            block.timestamp >= e.startTime &&\n            block.timestamp <= e.startTime + e.duration\n        );\n    }\n\n    function canStudentStart(uint256 examId, address student) external view returns (bool) {\n        StudentExamState memory s = studentExamStates[examId][student];\n        // SEC-TC-020: Lockout after 3 disconnects\n        bool notLocked = s.disconnectCount < 3;\n        // SEC-TC-030: Pause check\n        bool notPaused = !s.paused;\n        \n        return isAllowed(examId, student) && isExamLive(examId) &&\n               !s.submitted && notLocked && notPaused;\n    }\n\n    function getExam(uint256 examId) external view returns (\n        string memory paperCID,\n        string memory answerCID,\n        address teacher,\n        string memory name,\n        uint256 startTime,\n        uint256 duration,\n        bool active\n    ) {\n        Exam memory e = exams[examId];\n        return (e.encryptedPaperCID, e.encryptedAnswerCID, e.teacher, e.name, e.startTime, e.duration, e.active);\n    }\n\n    function getAllowedStudents(uint256 examId) external view returns (address[] memory) {\n        return exams[examId].allowedStudents;\n    }\n\n    function getStudentState(uint256 examId, address student)\n        external view returns (bool restartAllowed, uint8 disconnectCount, bool submitted)\n    {\n        StudentExamState memory s = studentExamStates[examId][student];\n        return (s.restartAllowed, s.disconnectCount, s.submitted);\n    }\n}\n",
  "sourcePath": "D:\\Downloads\\chainedu-nexus-main\\chainedu-nexus-main\\backend\\contracts\\ExamManager.sol",
  "compiler": {
    "name": "solc",
    "version": "0.8.20+commit.a1b79de6.Emscripten.clang"
  },
  "schemaVersion": "3.4.16",
  "updatedAt": "2026-03-29T18:42:39.571Z",
  "devdoc": {
    "kind": "dev",
    "methods": {},
    "version": 1
  },
  "userdoc": {
    "kind": "user",
    "methods": {},
    "notice": "ExamManager.sol — Phase 2 upgrade New additions:  ✅ Full exam struct: encrypted CID, answer CID, schedule, allowed students  ✅ Scheduled start time enforcement  ✅ Allowed-student list per exam  ✅ Teacher-controlled student restart permission  ✅ Network-loss restart logging (max 3 disconnects)  ✅ Events for frontend subscriptions",
    "version": 1
  }
}