{
  "contractName": "FeeVault",
  "abi": [
    {
      "inputs": [
        {
          "internalType": "address",
          "name": "_roleManager",
          "type": "address"
        },
        {
          "internalType": "address",
          "name": "_auditLog",
          "type": "address"
        },
        {
          "internalType": "address",
          "name": "_examManager",
          "type": "address"
        }
      ],
      "stateMutability": "nonpayable",
      "type": "constructor"
    },
    {
      "anonymous": false,
      "inputs": [
        {
          "indexed": true,
          "internalType": "address",
          "name": "admin",
          "type": "address"
        },
        {
          "indexed": false,
          "internalType": "uint256",
          "name": "amount",
          "type": "uint256"
        }
      ],
      "name": "FeesWithdrawn",
      "type": "event"
    },
    {
      "anonymous": false,
      "inputs": [
        {
          "indexed": true,
          "internalType": "address",
          "name": "teacher",
          "type": "address"
        },
        {
          "indexed": false,
          "internalType": "uint256",
          "name": "amount",
          "type": "uint256"
        },
        {
          "indexed": true,
          "internalType": "uint256",
          "name": "examId",
          "type": "uint256"
        }
      ],
      "name": "TeacherCharged",
      "type": "event"
    },
    {
      "inputs": [],
      "name": "UPDATE_FEE",
      "outputs": [
        {
          "internalType": "uint256",
          "name": "",
          "type": "uint256"
        }
      ],
      "stateMutability": "view",
      "type": "function"
    },
    {
      "inputs": [],
      "name": "auditLog",
      "outputs": [
        {
          "internalType": "contract AuditLog",
          "name": "",
          "type": "address"
        }
      ],
      "stateMutability": "view",
      "type": "function"
    },
    {
      "inputs": [],
      "name": "examManager",
      "outputs": [
        {
          "internalType": "address",
          "name": "",
          "type": "address"
        }
      ],
      "stateMutability": "view",
      "type": "function"
    },
    {
      "inputs": [],
      "name": "roleManager",
      "outputs": [
        {
          "internalType": "contract RoleManager",
          "name": "",
          "type": "address"
        }
      ],
      "stateMutability": "view",
      "type": "function"
    },
    {
      "inputs": [
        {
          "internalType": "address",
          "name": "",
          "type": "address"
        }
      ],
      "name": "totalCharged",
      "outputs": [
        {
          "internalType": "uint256",
          "name": "",
          "type": "uint256"
        }
      ],
      "stateMutability": "view",
      "type": "function"
    },
    {
      "inputs": [
        {
          "internalType": "uint256",
          "name": "examId",
          "type": "uint256"
        }
      ],
      "name": "chargeTeacher",
      "outputs": [],
      "stateMutability": "payable",
      "type": "function"
    },
    {
      "inputs": [],
      "name": "withdraw",
      "outputs": [],
      "stateMutability": "nonpayable",
      "type": "function"
    },
    {
      "inputs": [],
      "name": "getBalance",
      "outputs": [
        {
          "internalType": "uint256",
          "name": "",
          "type": "uint256"
        }
      ],
      "stateMutability": "view",
      "type": "function"
    }
  ],
  "bytecode": "0x60806040523480156200001157600080fd5b50604051620016bb380380620016bb83398181016040528101906200003791906200016c565b826000806101000a81548173ffffffffffffffffffffffffffffffffffffffff021916908373ffffffffffffffffffffffffffffffffffffffff16021790555081600160006101000a81548173ffffffffffffffffffffffffffffffffffffffff021916908373ffffffffffffffffffffffffffffffffffffffff16021790555080600260006101000a81548173ffffffffffffffffffffffffffffffffffffffff021916908373ffffffffffffffffffffffffffffffffffffffff160217905550505050620001c8565b600080fd5b600073ffffffffffffffffffffffffffffffffffffffff82169050919050565b6000620001348262000107565b9050919050565b620001468162000127565b81146200015257600080fd5b50565b60008151905062000166816200013b565b92915050565b60008060006060848603121562000188576200018762000102565b5b6000620001988682870162000155565b9350506020620001ab8682870162000155565b9250506040620001be8682870162000155565b9150509250925092565b6114e380620001d86000396000f3fe60806040526004361061007a5760003560e01c80635a2d6ebd1161004e5780635a2d6ebd146101085780637691ce2014610133578063bf0e120b1461015e578063e3d8bb5d146101895761007a565b8062435da51461007f57806312065fe0146100aa5780633ccfd60b146100d55780633f31b0c6146100ec575b600080fd5b34801561008b57600080fd5b506100946101c6565b6040516100a191906109fe565b60405180910390f35b3480156100b657600080fd5b506100bf6101ea565b6040516100cc9190610a32565b60405180910390f35b3480156100e157600080fd5b506100ea6101f2565b005b61010660048036038101906101019190610a8d565b610411565b005b34801561011457600080fd5b5061011d6107ab565b60405161012a9190610adb565b60405180910390f35b34801561013f57600080fd5b506101486107d1565b6040516101559190610b17565b60405180910390f35b34801561016a57600080fd5b506101736107f7565b6040516101809190610a32565b60405180910390f35b34801561019557600080fd5b506101b060048036038101906101ab9190610b5e565b610802565b6040516101bd9190610a32565b60405180910390f35b60008054906101000a900473ffffffffffffffffffffffffffffffffffffffff1681565b600047905090565b60008054906101000a900473ffffffffffffffffffffffffffffffffffffffff1673ffffffffffffffffffffffffffffffffffffffff166324d7806c336040518263ffffffff1660e01b815260040161024b9190610b17565b602060405180830381865afa158015610268573d6000803e3d6000fd5b505050506040513d601f19601f8201168201806040525081019061028c9190610bc3565b6102cb576040517f08c379a00000000000000000000000000000000000000000000000000000000081526004016102c290610c4d565b60405180910390fd5b600047905060008111610313576040517f08c379a000000000000000000000000000000000000000000000000000000000815260040161030a90610cb9565b60405180910390fd5b60003373ffffffffffffffffffffffffffffffffffffffff168260405161033990610d0a565b60006040518083038185875af1925050503d8060008114610376576040519150601f19603f3d011682016040523d82523d6000602084013e61037b565b606091505b50509050806103bf576040517f08c379a00000000000000000000000000000000000000000000000000000000081526004016103b690610d6b565b60405180910390fd5b3373ffffffffffffffffffffffffffffffffffffffff167fc0819c13be868895eb93e40eaceb96de976442fa1d404e5c55f14bb65a8c489a836040516104059190610a32565b60405180910390a25050565b60008054906101000a900473ffffffffffffffffffffffffffffffffffffffff1673ffffffffffffffffffffffffffffffffffffffff1663aec37eb3336040518263ffffffff1660e01b815260040161046a9190610b17565b602060405180830381865afa158015610487573d6000803e3d6000fd5b505050506040513d601f19601f820116820180604052508101906104ab9190610bc3565b6104ea576040517f08c379a00000000000000000000000000000000000000000000000000000000081526004016104e190610dd7565b60405180910390fd5b66038d7ea4c680003414610533576040517f08c379a000000000000000000000000000000000000000000000000000000000815260040161052a90610e69565b60405180910390fd5b6000600260009054906101000a900473ffffffffffffffffffffffffffffffffffffffff1673ffffffffffffffffffffffffffffffffffffffff1663f97563d5836040518263ffffffff1660e01b81526004016105909190610a32565b600060405180830381865afa1580156105ad573d6000803e3d6000fd5b505050506040513d6000823e3d601f19601f820116820180604052508101906105d69190611014565b50505050925050508073ffffffffffffffffffffffffffffffffffffffff163373ffffffffffffffffffffffffffffffffffffffff161461064c576040517f08c379a00000000000000000000000000000000000000000000000000000000081526004016106439061117c565b60405180910390fd5b34600360003373ffffffffffffffffffffffffffffffffffffffff1673ffffffffffffffffffffffffffffffffffffffff168152602001908152602001600020600082825461069b91906111cb565b92505081905550600160009054906101000a900473ffffffffffffffffffffffffffffffffffffffff1673ffffffffffffffffffffffffffffffffffffffff1663faf324fd336106ea8561081a565b6040516020016106fa9190611292565b6040516020818303038152906040526040518363ffffffff1660e01b8152600401610726929190611339565b600060405180830381600087803b15801561074057600080fd5b505af1158015610754573d6000803e3d6000fd5b50505050813373ffffffffffffffffffffffffffffffffffffffff167f616c6e56d1f3ccf2c7c889e040563088ff0900aa3d7273b119612216172805793460405161079f9190610a32565b60405180910390a35050565b600160009054906101000a900473ffffffffffffffffffffffffffffffffffffffff1681565b600260009054906101000a900473ffffffffffffffffffffffffffffffffffffffff1681565b66038d7ea4c6800081565b60036020528060005260406000206000915090505481565b606060008203610861576040518060400160405280600181526020017f3000000000000000000000000000000000000000000000000000000000000000815250905061097a565b600082905060005b6000821461089357808061087c9061137c565b915050600a8261088c91906113f3565b9150610869565b60008167ffffffffffffffff8111156108af576108ae610ea4565b5b6040519080825280601f01601f1916602001820160405280156108e15781602001600182028036833780820191505090505b50905060008290505b600086146109725780806108fd90611424565b915050600a8661090d919061144d565b603061091991906111cb565b60f81b82828151811061092f5761092e61147e565b5b60200101907effffffffffffffffffffffffffffffffffffffffffffffffffffffffffffff1916908160001a905350600a8661096b91906113f3565b95506108ea565b819450505050505b919050565b600073ffffffffffffffffffffffffffffffffffffffff82169050919050565b6000819050919050565b60006109c46109bf6109ba8461097f565b61099f565b61097f565b9050919050565b60006109d6826109a9565b9050919050565b60006109e8826109cb565b9050919050565b6109f8816109dd565b82525050565b6000602082019050610a1360008301846109ef565b92915050565b6000819050919050565b610a2c81610a19565b82525050565b6000602082019050610a476000830184610a23565b92915050565b6000604051905090565b600080fd5b600080fd5b610a6a81610a19565b8114610a7557600080fd5b50565b600081359050610a8781610a61565b92915050565b600060208284031215610aa357610aa2610a57565b5b6000610ab184828501610a78565b91505092915050565b6000610ac5826109cb565b9050919050565b610ad581610aba565b82525050565b6000602082019050610af06000830184610acc565b92915050565b6000610b018261097f565b9050919050565b610b1181610af6565b82525050565b6000602082019050610b2c6000830184610b08565b92915050565b610b3b81610af6565b8114610b4657600080fd5b50565b600081359050610b5881610b32565b92915050565b600060208284031215610b7457610b73610a57565b5b6000610b8284828501610b49565b91505092915050565b60008115159050919050565b610ba081610b8b565b8114610bab57600080fd5b50565b600081519050610bbd81610b97565b92915050565b600060208284031215610bd957610bd8610a57565b5b6000610be784828501610bae565b91505092915050565b600082825260208201905092915050565b7f4665655661756c743a206e6f742061646d696e00000000000000000000000000600082015250565b6000610c37601383610bf0565b9150610c4282610c01565b602082019050919050565b60006020820190508181036000830152610c6681610c2a565b9050919050565b7f4665655661756c743a206e6f2062616c616e6365000000000000000000000000600082015250565b6000610ca3601483610bf0565b9150610cae82610c6d565b602082019050919050565b60006020820190508181036000830152610cd281610c96565b9050919050565b600081905092915050565b50565b6000610cf4600083610cd9565b9150610cff82610ce4565b600082019050919050565b6000610d1582610ce7565b9150819050919050565b7f4665655661756c743a207472616e73666572206661696c656400000000000000600082015250565b6000610d55601983610bf0565b9150610d6082610d1f565b602082019050919050565b60006020820190508181036000830152610d8481610d48565b9050919050565b7f4665655661756c743a206e6f7420746561636865720000000000000000000000600082015250565b6000610dc1601583610bf0565b9150610dcc82610d8b565b602082019050919050565b60006020820190508181036000830152610df081610db4565b9050919050565b7f4665655661756c743a206d7573742073656e642065786163746c7920302e303060008201527f3120455448000000000000000000000000000000000000000000000000000000602082015250565b6000610e53602583610bf0565b9150610e5e82610df7565b604082019050919050565b60006020820190508181036000830152610e8281610e46565b9050919050565b600080fd5b600080fd5b6000601f19601f8301169050919050565b7f4e487b7100000000000000000000000000000000000000000000000000000000600052604160045260246000fd5b610edc82610e93565b810181811067ffffffffffffffff82111715610efb57610efa610ea4565b5b80604052505050565b6000610f0e610a4d565b9050610f1a8282610ed3565b919050565b600067ffffffffffffffff821115610f3a57610f39610ea4565b5b610f4382610e93565b9050602081019050919050565b60005b83811015610f6e578082015181840152602081019050610f53565b60008484015250505050565b6000610f8d610f8884610f1f565b610f04565b905082815260208101848484011115610fa957610fa8610e8e565b5b610fb4848285610f50565b509392505050565b600082601f830112610fd157610fd0610e89565b5b8151610fe1848260208601610f7a565b91505092915050565b600081519050610ff981610b32565b92915050565b60008151905061100e81610a61565b92915050565b600080600080600080600060e0888a03121561103357611032610a57565b5b600088015167ffffffffffffffff81111561105157611050610a5c565b5b61105d8a828b01610fbc565b975050602088015167ffffffffffffffff81111561107e5761107d610a5c565b5b61108a8a828b01610fbc565b965050604061109b8a828b01610fea565b955050606088015167ffffffffffffffff8111156110bc576110bb610a5c565b5b6110c88a828b01610fbc565b94505060806110d98a828b01610fff565b93505060a06110ea8a828b01610fff565b92505060c06110fb8a828b01610bae565b91505092959891949750929550565b7f4665655661756c743a206e6f742074686520726567697374657265642074656160008201527f6368657220666f722074686973206578616d0000000000000000000000000000602082015250565b6000611166603283610bf0565b91506111718261110a565b604082019050919050565b6000602082019050818103600083015261119581611159565b9050919050565b7f4e487b7100000000000000000000000000000000000000000000000000000000600052601160045260246000fd5b60006111d682610a19565b91506111e183610a19565b92508282019050808211156111f9576111f861119c565b5b92915050565b600081905092915050565b7f416e73776572207570646174652066656520666f72206578616d200000000000600082015250565b6000611240601b836111ff565b915061124b8261120a565b601b82019050919050565b600081519050919050565b600061126c82611256565b61127681856111ff565b9350611286818560208601610f50565b80840191505092915050565b600061129d82611233565b91506112a98284611261565b915081905092915050565b7f5465616368657243686172676564000000000000000000000000000000000000600082015250565b60006112ea600e83610bf0565b91506112f5826112b4565b602082019050919050565b600061130b82611256565b6113158185610bf0565b9350611325818560208601610f50565b61132e81610e93565b840191505092915050565b60006060820190508181036000830152611352816112dd565b90506113616020830185610b08565b81810360408301526113738184611300565b90509392505050565b600061138782610a19565b91507fffffffffffffffffffffffffffffffffffffffffffffffffffffffffffffffff82036113b9576113b861119c565b5b600182019050919050565b7f4e487b7100000000000000000000000000000000000000000000000000000000600052601260045260246000fd5b60006113fe82610a19565b915061140983610a19565b925082611419576114186113c4565b5b828204905092915050565b600061142f82610a19565b9150600082036114425761144161119c565b5b600182039050919050565b600061145882610a19565b915061146383610a19565b925082611473576114726113c4565b5b828206905092915050565b7f4e487b7100000000000000000000000000000000000000000000000000000000600052603260045260246000fdfea26469706673582212201b57cf9fbb150c920ca9d741ed027779edee72fff805f17f98d301c4b90c73b864736f6c63430008140033",
  "immutableReferences": {},
  "source": "// SPDX-License-Identifier: MIT\npragma solidity ^0.8.20;\n\nimport \"./RoleManager.sol\";\nimport \"./AuditLog.sol\";\nimport \"./IExamManager.sol\";\n\n/**\n * FeeVault.sol — Phase 2 upgrade\n */\ncontract FeeVault {\n\n    RoleManager public roleManager;\n    AuditLog    public auditLog;\n    address     public examManager;\n\n    uint256 public constant UPDATE_FEE = 0.001 ether;\n\n    mapping(address => uint256) public totalCharged;\n\n    event TeacherCharged(address indexed teacher, uint256 amount, uint256 indexed examId);\n    event FeesWithdrawn(address indexed admin, uint256 amount);\n\n    modifier onlyAdmin() {\n        require(roleManager.isAdmin(msg.sender), \"FeeVault: not admin\");\n        _;\n    }\n\n    modifier onlyTeacher() {\n        require(roleManager.isTeacher(msg.sender), \"FeeVault: not teacher\");\n        _;\n    }\n\n    constructor(address _roleManager, address _auditLog, address _examManager) {\n        roleManager = RoleManager(_roleManager);\n        auditLog    = AuditLog(_auditLog);\n        examManager = _examManager;\n    }\n\n    function chargeTeacher(uint256 examId) external payable onlyTeacher {\n        require(msg.value == UPDATE_FEE, \"FeeVault: must send exactly 0.001 ETH\");\n        \n        // SEC-TC-008: Verify msg.sender is the teacher of this specifically referenced exam\n        (, , address teacher, , , , ) = IExamManager(examManager).getExam(examId);\n        require(msg.sender == teacher, \"FeeVault: not the registered teacher for this exam\");\n\n        totalCharged[msg.sender] += msg.value;\n        auditLog.logEvent(\n            \"TeacherCharged\",\n            msg.sender,\n            string(abi.encodePacked(\"Answer update fee for exam \", _uint2str(examId)))\n        );\n        emit TeacherCharged(msg.sender, msg.value, examId);\n    }\n\n    function withdraw() external onlyAdmin {\n        uint256 balance = address(this).balance;\n        require(balance > 0, \"FeeVault: no balance\");\n        (bool ok, ) = payable(msg.sender).call{value: balance}(\"\");\n        require(ok, \"FeeVault: transfer failed\");\n        emit FeesWithdrawn(msg.sender, balance);\n    }\n\n    function getBalance() external view returns (uint256) {\n        return address(this).balance;\n    }\n\n    function _uint2str(uint256 n) internal pure returns (string memory) {\n        if (n == 0) return \"0\";\n        uint256 j = n; uint256 len;\n        while (j != 0) { len++; j /= 10; }\n        bytes memory bstr = new bytes(len);\n        uint256 k = len;\n        while (n != 0) {\n            k--;\n            bstr[k] = bytes1(uint8(48 + (n % 10)));\n            n /= 10;\n        }\n        return string(bstr);\n    }\n}\n",
  "sourcePath": "D:\\Downloads\\chainedu-nexus-main\\chainedu-nexus-main\\backend\\contracts\\FeeVault.sol",
  "compiler": {
    "name": "solc",
    "version": "0.8.20+commit.a1b79de6.Emscripten.clang"
  },
  "schemaVersion": "3.4.16",
  "updatedAt": "2026-03-29T18:42:39.609Z",
  "devdoc": {
    "kind": "dev",
    "methods": {},
    "version": 1
  },
  "userdoc": {
    "kind": "user",
    "methods": {},
    "notice": "FeeVault.sol — Phase 2 upgrade",
    "version": 1
  }
}