{
  "contractName": "ResultLedger",
  "abi": [
    {
      "inputs": [
        {
          "internalType": "address",
          "name": "_roleManager",
          "type": "address"
        },
        {
          "internalType": "address",
          "name": "_auditLog",
          "type": "address"
        },
        {
          "internalType": "address",
          "name": "_examManager",
          "type": "address"
        },
        {
          "internalType": "address",
          "name": "_feeVault",
          "type": "address"
        }
      ],
      "stateMutability": "nonpayable",
      "type": "constructor"
    },
    {
      "anonymous": false,
      "inputs": [
        {
          "indexed": true,
          "internalType": "address",
          "name": "student",
          "type": "address"
        },
        {
          "indexed": true,
          "internalType": "uint256",
          "name": "examId",
          "type": "uint256"
        },
        {
          "indexed": false,
          "internalType": "bytes32",
          "name": "resultHash",
          "type": "bytes32"
        },
        {
          "indexed": false,
          "internalType": "string",
          "name": "ipfsCID",
          "type": "string"
        },
        {
          "indexed": false,
          "internalType": "uint256",
          "name": "score",
          "type": "uint256"
        },
        {
          "indexed": false,
          "internalType": "uint256",
          "name": "totalQuestions",
          "type": "uint256"
        },
        {
          "indexed": false,
          "internalType": "bool",
          "name": "isUpdate",
          "type": "bool"
        },
        {
          "indexed": false,
          "internalType": "address",
          "name": "submittedBy",
          "type": "address"
        }
      ],
      "name": "ResultSubmitted",
      "type": "event"
    },
    {
      "inputs": [],
      "name": "auditLog",
      "outputs": [
        {
          "internalType": "contract AuditLog",
          "name": "",
          "type": "address"
        }
      ],
      "stateMutability": "view",
      "type": "function"
    },
    {
      "inputs": [],
      "name": "examManager",
      "outputs": [
        {
          "internalType": "address",
          "name": "",
          "type": "address"
        }
      ],
      "stateMutability": "view",
      "type": "function"
    },
    {
      "inputs": [],
      "name": "feeVault",
      "outputs": [
        {
          "internalType": "address",
          "name": "",
          "type": "address"
        }
      ],
      "stateMutability": "view",
      "type": "function"
    },
    {
      "inputs": [
        {
          "internalType": "address",
          "name": "",
          "type": "address"
        },
        {
          "internalType": "uint256",
          "name": "",
          "type": "uint256"
        }
      ],
      "name": "hasSubmitted",
      "outputs": [
        {
          "internalType": "bool",
          "name": "",
          "type": "bool"
        }
      ],
      "stateMutability": "view",
      "type": "function"
    },
    {
      "inputs": [],
      "name": "roleManager",
      "outputs": [
        {
          "internalType": "contract RoleManager",
          "name": "",
          "type": "address"
        }
      ],
      "stateMutability": "view",
      "type": "function"
    },
    {
      "inputs": [
        {
          "internalType": "address",
          "name": "student",
          "type": "address"
        },
        {
          "internalType": "uint256",
          "name": "examId",
          "type": "uint256"
        },
        {
          "internalType": "bytes32",
          "name": "resultHash",
          "type": "bytes32"
        },
        {
          "internalType": "string",
          "name": "ipfsCID",
          "type": "string"
        },
        {
          "internalType": "uint256",
          "name": "score",
          "type": "uint256"
        },
        {
          "internalType": "uint256",
          "name": "totalQuestions",
          "type": "uint256"
        }
      ],
      "name": "submitResult",
      "outputs": [],
      "stateMutability": "nonpayable",
      "type": "function"
    },
    {
      "inputs": [
        {
          "internalType": "address",
          "name": "student",
          "type": "address"
        },
        {
          "internalType": "uint256",
          "name": "examId",
          "type": "uint256"
        }
      ],
      "name": "getResultHistory",
      "outputs": [
        {
          "components": [
            {
              "internalType": "bytes32",
              "name": "resultHash",
              "type": "bytes32"
            },
            {
              "internalType": "string",
              "name": "ipfsCID",
              "type": "string"
            },
            {
              "internalType": "uint256",
              "name": "timestamp",
              "type": "uint256"
            },
            {
              "internalType": "address",
              "name": "submittedBy",
              "type": "address"
            },
            {
              "internalType": "bool",
              "name": "isUpdate",
              "type": "bool"
            },
            {
              "internalType": "uint256",
              "name": "score",
              "type": "uint256"
            },
            {
              "internalType": "uint256",
              "name": "totalQuestions",
              "type": "uint256"
            }
          ],
          "internalType": "struct ResultLedger.ResultEntry[]",
          "name": "",
          "type": "tuple[]"
        }
      ],
      "stateMutability": "view",
      "type": "function"
    },
    {
      "inputs": [
        {
          "internalType": "address",
          "name": "student",
          "type": "address"
        },
        {
          "internalType": "uint256",
          "name": "examId",
          "type": "uint256"
        }
      ],
      "name": "getLatestResult",
      "outputs": [
        {
          "components": [
            {
              "internalType": "bytes32",
              "name": "resultHash",
              "type": "bytes32"
            },
            {
              "internalType": "string",
              "name": "ipfsCID",
              "type": "string"
            },
            {
              "internalType": "uint256",
              "name": "timestamp",
              "type": "uint256"
            },
            {
              "internalType": "address",
              "name": "submittedBy",
              "type": "address"
            },
            {
              "internalType": "bool",
              "name": "isUpdate",
              "type": "bool"
            },
            {
              "internalType": "uint256",
              "name": "score",
              "type": "uint256"
            },
            {
              "internalType": "uint256",
              "name": "totalQuestions",
              "type": "uint256"
            }
          ],
          "internalType": "struct ResultLedger.ResultEntry",
          "name": "",
          "type": "tuple"
        }
      ],
      "stateMutability": "view",
      "type": "function"
    }
  ],
  "bytecode": "0x60806040523480156200001157600080fd5b506040516200252e3803806200252e8339818101604052810190620000379190620001ae565b836000806101000a81548173ffffffffffffffffffffffffffffffffffffffff021916908373ffffffffffffffffffffffffffffffffffffffff16021790555082600160006101000a81548173ffffffffffffffffffffffffffffffffffffffff021916908373ffffffffffffffffffffffffffffffffffffffff16021790555081600260006101000a81548173ffffffffffffffffffffffffffffffffffffffff021916908373ffffffffffffffffffffffffffffffffffffffff16021790555080600360006101000a81548173ffffffffffffffffffffffffffffffffffffffff021916908373ffffffffffffffffffffffffffffffffffffffff1602179055505050505062000220565b600080fd5b600073ffffffffffffffffffffffffffffffffffffffff82169050919050565b6000620001768262000149565b9050919050565b620001888162000169565b81146200019457600080fd5b50565b600081519050620001a8816200017d565b92915050565b60008060008060808587031215620001cb57620001ca62000144565b5b6000620001db8782880162000197565b9450506020620001ee8782880162000197565b9350506040620002018782880162000197565b9250506060620002148782880162000197565b91505092959194509250565b6122fe80620002306000396000f3fe608060405234801561001057600080fd5b50600436106100875760003560e01c80637691ce201161005b5780637691ce2014610116578063a2d287bd14610134578063ab22f8dd14610150578063fbf3ca671461018057610087565b8062435da51461008c578063478222c2146100aa5780635a2d6ebd146100c85780635ccd013b146100e6575b600080fd5b6100946101b0565b6040516100a191906110f9565b60405180910390f35b6100b26101d4565b6040516100bf9190611135565b60405180910390f35b6100d06101fa565b6040516100dd9190611171565b60405180910390f35b61010060048036038101906100fb9190611202565b610220565b60405161010d91906113c0565b60405180910390f35b61011e610433565b60405161012b9190611135565b60405180910390f35b61014e60048036038101906101499190611473565b610459565b005b61016a60048036038101906101659190611202565b610cb3565b6040516101779190611680565b60405180910390f35b61019a60048036038101906101959190611202565b610e8e565b6040516101a791906116b1565b60405180910390f35b60008054906101000a900473ffffffffffffffffffffffffffffffffffffffff1681565b600360009054906101000a900473ffffffffffffffffffffffffffffffffffffffff1681565b600160009054906101000a900473ffffffffffffffffffffffffffffffffffffffff1681565b610228611022565b6000600460008573ffffffffffffffffffffffffffffffffffffffff1673ffffffffffffffffffffffffffffffffffffffff1681526020019081526020016000206000848152602001908152602001600020905060008180549050116102c3576040517f08c379a00000000000000000000000000000000000000000000000000000000081526004016102ba90611729565b60405180910390fd5b80600182805490506102d59190611778565b815481106102e6576102e56117ac565b5b90600052602060002090600602016040518060e0016040529081600082015481526020016001820180546103199061180a565b80601f01602080910402602001604051908101604052809291908181526020018280546103459061180a565b80156103925780601f1061036757610100808354040283529160200191610392565b820191906000526020600020905b81548152906001019060200180831161037557829003601f168201915b50505050508152602001600282015481526020016003820160009054906101000a900473ffffffffffffffffffffffffffffffffffffffff1673ffffffffffffffffffffffffffffffffffffffff1673ffffffffffffffffffffffffffffffffffffffff1681526020016003820160149054906101000a900460ff161515151581526020016004820154815260200160058201548152505091505092915050565b600260009054906101000a900473ffffffffffffffffffffffffffffffffffffffff1681565b600360149054906101000a900460ff16156104a9576040517f08c379a00000000000000000000000000000000000000000000000000000000081526004016104a090611887565b60405180910390fd5b6001600360146101000a81548160ff02191690831515021790555060008060009054906101000a900473ffffffffffffffffffffffffffffffffffffffff1673ffffffffffffffffffffffffffffffffffffffff1663aec37eb3336040518263ffffffff1660e01b81526004016105209190611135565b602060405180830381865afa15801561053d573d6000803e3d6000fd5b505050506040513d601f19601f8201168201806040525081019061056191906118d3565b905060008060009054906101000a900473ffffffffffffffffffffffffffffffffffffffff1673ffffffffffffffffffffffffffffffffffffffff166382f7d392336040518263ffffffff1660e01b81526004016105bf9190611135565b602060405180830381865afa1580156105dc573d6000803e3d6000fd5b505050506040513d601f19601f8201168201806040525081019061060091906118d3565b9050818061060b5750805b61064a576040517f08c379a000000000000000000000000000000000000000000000000000000000815260040161064190611972565b60405180910390fd5b808015610655575081155b156107d0578873ffffffffffffffffffffffffffffffffffffffff163373ffffffffffffffffffffffffffffffffffffffff16146106c8576040517f08c379a00000000000000000000000000000000000000000000000000000000081526004016106bf906119de565b60405180910390fd5b600560008a73ffffffffffffffffffffffffffffffffffffffff1673ffffffffffffffffffffffffffffffffffffffff168152602001908152602001600020600089815260200190815260200160002060009054906101000a900460ff1615610766576040517f08c379a000000000000000000000000000000000000000000000000000000000815260040161075d90611a4a565b60405180910390fd5b6001600560008b73ffffffffffffffffffffffffffffffffffffffff1673ffffffffffffffffffffffffffffffffffffffff16815260200190815260200160002060008a815260200190815260200160002060006101000a81548160ff0219169083151502179055505b600080600460008c73ffffffffffffffffffffffffffffffffffffffff1673ffffffffffffffffffffffffffffffffffffffff16815260200190815260200160002060008b8152602001908152602001600020805490501190508080156108345750825b15610954576000600260009054906101000a900473ffffffffffffffffffffffffffffffffffffffff1673ffffffffffffffffffffffffffffffffffffffff1663f97563d58b6040518263ffffffff1660e01b81526004016108969190611a79565b600060405180830381865afa1580156108b3573d6000803e3d6000fd5b505050506040513d6000823e3d601f19601f820116820180604052508101906108dc9190611bdf565b50505050925050508073ffffffffffffffffffffffffffffffffffffffff163373ffffffffffffffffffffffffffffffffffffffff1614610952576040517f08c379a000000000000000000000000000000000000000000000000000000000815260040161094990611d21565b60405180910390fd5b505b600460008b73ffffffffffffffffffffffffffffffffffffffff1673ffffffffffffffffffffffffffffffffffffffff16815260200190815260200160002060008a81526020019081526020016000206040518060e001604052808a815260200189898080601f016020809104026020016040519081016040528093929190818152602001838380828437600081840152601f19601f8201169050808301925050505050505081526020014281526020013373ffffffffffffffffffffffffffffffffffffffff1681526020018315158152602001878152602001868152509080600181540180825580915050600190039060005260206000209060060201600090919091909150600082015181600001556020820151816001019081610a7b9190611ee3565b506040820151816002015560608201518160030160006101000a81548173ffffffffffffffffffffffffffffffffffffffff021916908373ffffffffffffffffffffffffffffffffffffffff16021790555060808201518160030160146101000a81548160ff02191690831515021790555060a0820151816004015560c082015181600501555050600160009054906101000a900473ffffffffffffffffffffffffffffffffffffffff1673ffffffffffffffffffffffffffffffffffffffff1663faf324fd82610b81576040518060400160405280600f81526020017f526573756c745375626d69747465640000000000000000000000000000000000815250610bb8565b6040518060400160405280600d81526020017f526573756c7455706461746564000000000000000000000000000000000000008152505b8c610bc28d610ebd565b604051602001610bd2919061203d565b6040516020818303038152906040526040518463ffffffff1660e01b8152600401610bff93929190612098565b600060405180830381600087803b158015610c1957600080fd5b505af1158015610c2d573d6000803e3d6000fd5b50505050888a73ffffffffffffffffffffffffffffffffffffffff167f6c28f367409f4aea157fecd35e89ea7ca0c4081891d59dbb17ab9f7d2f6155538a8a8a8a8a8833604051610c849796959493929190612128565b60405180910390a35050506000600360146101000a81548160ff02191690831515021790555050505050505050565b6060600460008473ffffffffffffffffffffffffffffffffffffffff1673ffffffffffffffffffffffffffffffffffffffff1681526020019081526020016000206000838152602001908152602001600020805480602002602001604051908101604052809291908181526020016000905b82821015610e8257838290600052602060002090600602016040518060e001604052908160008201548152602001600182018054610d629061180a565b80601f0160208091040260200160405190810160405280929190818152602001828054610d8e9061180a565b8015610ddb5780601f10610db057610100808354040283529160200191610ddb565b820191906000526020600020905b815481529060010190602001808311610dbe57829003601f168201915b50505050508152602001600282015481526020016003820160009054906101000a900473ffffffffffffffffffffffffffffffffffffffff1673ffffffffffffffffffffffffffffffffffffffff1673ffffffffffffffffffffffffffffffffffffffff1681526020016003820160149054906101000a900460ff161515151581526020016004820154815260200160058201548152505081526020019060010190610d25565b50505050905092915050565b60056020528160005260406000206020528060005260406000206000915091509054906101000a900460ff1681565b606060008203610f04576040518060400160405280600181526020017f3000000000000000000000000000000000000000000000000000000000000000815250905061101d565b600082905060005b60008214610f36578080610f1f90612192565b915050600a82610f2f9190612209565b9150610f0c565b60008167ffffffffffffffff811115610f5257610f51611a99565b5b6040519080825280601f01601f191660200182016040528015610f845781602001600182028036833780820191505090505b50905060008290505b60008614611015578080610fa09061223a565b915050600a86610fb09190612263565b6030610fbc9190612294565b60f81b828281518110610fd257610fd16117ac565b5b60200101907effffffffffffffffffffffffffffffffffffffffffffffffffffffffffffff1916908160001a905350600a8661100e9190612209565b9550610f8d565b819450505050505b919050565b6040518060e00160405280600080191681526020016060815260200160008152602001600073ffffffffffffffffffffffffffffffffffffffff16815260200160001515815260200160008152602001600081525090565b600073ffffffffffffffffffffffffffffffffffffffff82169050919050565b6000819050919050565b60006110bf6110ba6110b58461107a565b61109a565b61107a565b9050919050565b60006110d1826110a4565b9050919050565b60006110e3826110c6565b9050919050565b6110f3816110d8565b82525050565b600060208201905061110e60008301846110ea565b92915050565b600061111f8261107a565b9050919050565b61112f81611114565b82525050565b600060208201905061114a6000830184611126565b92915050565b600061115b826110c6565b9050919050565b61116b81611150565b82525050565b60006020820190506111866000830184611162565b92915050565b6000604051905090565b600080fd5b600080fd5b6111a981611114565b81146111b457600080fd5b50565b6000813590506111c6816111a0565b92915050565b6000819050919050565b6111df816111cc565b81146111ea57600080fd5b50565b6000813590506111fc816111d6565b92915050565b6000806040838503121561121957611218611196565b5b6000611227858286016111b7565b9250506020611238858286016111ed565b9150509250929050565b6000819050919050565b61125581611242565b82525050565b600081519050919050565b600082825260208201905092915050565b60005b8381101561129557808201518184015260208101905061127a565b60008484015250505050565b6000601f19601f8301169050919050565b60006112bd8261125b565b6112c78185611266565b93506112d7818560208601611277565b6112e0816112a1565b840191505092915050565b6112f4816111cc565b82525050565b61130381611114565b82525050565b60008115159050919050565b61131e81611309565b82525050565b600060e08301600083015161133c600086018261124c565b506020830151848203602086015261135482826112b2565b915050604083015161136960408601826112eb565b50606083015161137c60608601826112fa565b50608083015161138f6080860182611315565b5060a08301516113a260a08601826112eb565b5060c08301516113b560c08601826112eb565b508091505092915050565b600060208201905081810360008301526113da8184611324565b905092915050565b6113eb81611242565b81146113f657600080fd5b50565b600081359050611408816113e2565b92915050565b600080fd5b600080fd5b600080fd5b60008083601f8401126114335761143261140e565b5b8235905067ffffffffffffffff8111156114505761144f611413565b5b60208301915083600182028301111561146c5761146b611418565b5b9250929050565b600080600080600080600060c0888a03121561149257611491611196565b5b60006114a08a828b016111b7565b97505060206114b18a828b016111ed565b96505060406114c28a828b016113f9565b955050606088013567ffffffffffffffff8111156114e3576114e261119b565b5b6114ef8a828b0161141d565b945094505060806115028a828b016111ed565b92505060a06115138a828b016111ed565b91505092959891949750929550565b600081519050919050565b600082825260208201905092915050565b6000819050602082019050919050565b600060e083016000830151611566600086018261124c565b506020830151848203602086015261157e82826112b2565b915050604083015161159360408601826112eb565b5060608301516115a660608601826112fa565b5060808301516115b96080860182611315565b5060a08301516115cc60a08601826112eb565b5060c08301516115df60c08601826112eb565b508091505092915050565b60006115f6838361154e565b905092915050565b6000602082019050919050565b600061161682611522565b611620818561152d565b9350836020820285016116328561153e565b8060005b8581101561166e578484038952815161164f85826115ea565b945061165a836115fe565b925060208a01995050600181019050611636565b50829750879550505050505092915050565b6000602082019050818103600083015261169a818461160b565b905092915050565b6116ab81611309565b82525050565b60006020820190506116c660008301846116a2565b92915050565b600082825260208201905092915050565b7f526573756c744c65646765723a207a65726f20726573756c7473000000000000600082015250565b6000611713601a836116cc565b915061171e826116dd565b602082019050919050565b6000602082019050818103600083015261174281611706565b9050919050565b7f4e487b7100000000000000000000000000000000000000000000000000000000600052601160045260246000fd5b6000611783826111cc565b915061178e836111cc565b92508282039050818111156117a6576117a5611749565b5b92915050565b7f4e487b7100000000000000000000000000000000000000000000000000000000600052603260045260246000fd5b7f4e487b7100000000000000000000000000000000000000000000000000000000600052602260045260246000fd5b6000600282049050600182168061182257607f821691505b602082108103611835576118346117db565b5b50919050565b7f526573756c744c65646765723a207265656e7472616e742063616c6c00000000600082015250565b6000611871601c836116cc565b915061187c8261183b565b602082019050919050565b600060208201905081810360008301526118a081611864565b9050919050565b6118b081611309565b81146118bb57600080fd5b50565b6000815190506118cd816118a7565b92915050565b6000602082840312156118e9576118e8611196565b5b60006118f7848285016118be565b91505092915050565b7f526573756c744c65646765723a20756e617574686f72697a65642073656e646560008201527f7200000000000000000000000000000000000000000000000000000000000000602082015250565b600061195c6021836116cc565b915061196782611900565b604082019050919050565b6000602082019050818103600083015261198b8161194f565b9050919050565b7f526573756c744c65646765723a206e6f742073747564656e742077616c6c6574600082015250565b60006119c86020836116cc565b91506119d382611992565b602082019050919050565b600060208201905081810360008301526119f7816119bb565b9050919050565b7f526573756c744c65646765723a20616c7265616479207375626d697474656400600082015250565b6000611a34601f836116cc565b9150611a3f826119fe565b602082019050919050565b60006020820190508181036000830152611a6381611a27565b9050919050565b611a73816111cc565b82525050565b6000602082019050611a8e6000830184611a6a565b92915050565b600080fd5b7f4e487b7100000000000000000000000000000000000000000000000000000000600052604160045260246000fd5b611ad1826112a1565b810181811067ffffffffffffffff82111715611af057611aef611a99565b5b80604052505050565b6000611b0361118c565b9050611b0f8282611ac8565b919050565b600067ffffffffffffffff821115611b2f57611b2e611a99565b5b611b38826112a1565b9050602081019050919050565b6000611b58611b5384611b14565b611af9565b905082815260208101848484011115611b7457611b73611a94565b5b611b7f848285611277565b509392505050565b600082601f830112611b9c57611b9b61140e565b5b8151611bac848260208601611b45565b91505092915050565b600081519050611bc4816111a0565b92915050565b600081519050611bd9816111d6565b92915050565b600080600080600080600060e0888a031215611bfe57611bfd611196565b5b600088015167ffffffffffffffff811115611c1c57611c1b61119b565b5b611c288a828b01611b87565b975050602088015167ffffffffffffffff811115611c4957611c4861119b565b5b611c558a828b01611b87565b9650506040611c668a828b01611bb5565b955050606088015167ffffffffffffffff811115611c8757611c8661119b565b5b611c938a828b01611b87565b9450506080611ca48a828b01611bca565b93505060a0611cb58a828b01611bca565b92505060c0611cc68a828b016118be565b91505092959891949750929550565b7f526573756c744c65646765723a206e6f74206578616d20746561636865720000600082015250565b6000611d0b601e836116cc565b9150611d1682611cd5565b602082019050919050565b60006020820190508181036000830152611d3a81611cfe565b9050919050565b60008190508160005260206000209050919050565b60006020601f8301049050919050565b600082821b905092915050565b600060088302611da37fffffffffffffffffffffffffffffffffffffffffffffffffffffffffffffffff82611d66565b611dad8683611d66565b95508019841693508086168417925050509392505050565b6000611de0611ddb611dd6846111cc565b61109a565b6111cc565b9050919050565b6000819050919050565b611dfa83611dc5565b611e0e611e0682611de7565b848454611d73565b825550505050565b600090565b611e23611e16565b611e2e818484611df1565b505050565b5b81811015611e5257611e47600082611e1b565b600181019050611e34565b5050565b601f821115611e9757611e6881611d41565b611e7184611d56565b81016020851015611e80578190505b611e94611e8c85611d56565b830182611e33565b50505b505050565b600082821c905092915050565b6000611eba60001984600802611e9c565b1980831691505092915050565b6000611ed38383611ea9565b9150826002028217905092915050565b611eec8261125b565b67ffffffffffffffff811115611f0557611f04611a99565b5b611f0f825461180a565b611f1a828285611e56565b600060209050601f831160018114611f4d5760008415611f3b578287015190505b611f458582611ec7565b865550611fad565b601f198416611f5b86611d41565b60005b82811015611f8357848901518255600182019150602085019450602081019050611f5e565b86831015611fa05784890151611f9c601f891682611ea9565b8355505b6001600288020188555050505b505050505050565b600081905092915050565b7f4578616d20000000000000000000000000000000000000000000000000000000600082015250565b6000611ff6600583611fb5565b915061200182611fc0565b600582019050919050565b60006120178261125b565b6120218185611fb5565b9350612031818560208601611277565b80840191505092915050565b600061204882611fe9565b9150612054828461200c565b915081905092915050565b600061206a8261125b565b61207481856116cc565b9350612084818560208601611277565b61208d816112a1565b840191505092915050565b600060608201905081810360008301526120b2818661205f565b90506120c16020830185611126565b81810360408301526120d3818461205f565b9050949350505050565b6120e681611242565b82525050565b82818337600083830152505050565b600061210783856116cc565b93506121148385846120ec565b61211d836112a1565b840190509392505050565b600060c08201905061213d600083018a6120dd565b818103602083015261215081888a6120fb565b905061215f6040830187611a6a565b61216c6060830186611a6a565b61217960808301856116a2565b61218660a0830184611126565b98975050505050505050565b600061219d826111cc565b91507fffffffffffffffffffffffffffffffffffffffffffffffffffffffffffffffff82036121cf576121ce611749565b5b600182019050919050565b7f4e487b7100000000000000000000000000000000000000000000000000000000600052601260045260246000fd5b6000612214826111cc565b915061221f836111cc565b92508261222f5761222e6121da565b5b828204905092915050565b6000612245826111cc565b91506000820361225857612257611749565b5b600182039050919050565b600061226e826111cc565b9150612279836111cc565b925082612289576122886121da565b5b828206905092915050565b600061229f826111cc565b91506122aa836111cc565b92508282019050808211156122c2576122c1611749565b5b9291505056fea26469706673582212206dad84f1d1c3404f79e88dab0fb46f5f01981aaef5fefb229ff44a09252bb8fa64736f6c63430008140033",
  "immutableReferences": {},
  "source": "// SPDX-License-Identifier: MIT\npragma solidity ^0.8.20;\n\nimport \"./RoleManager.sol\";\nimport \"./AuditLog.sol\";\nimport \"./IExamManager.sol\";\n\n// Interface for cross-contract checks (Deduction & Ownership)\ninterface IFeeVault {\n    function totalCharged(address teacher) external view returns (uint256);\n}\n\n/**\n * ResultLedger.sol — Immutable Academic Registry\n */\ncontract ResultLedger {\n\n    RoleManager public roleManager;\n    AuditLog    public auditLog;\n    address     public examManager;\n    address     public feeVault;\n    \n    bool        private _locked;\n\n    modifier noReentrant() {\n        require(!_locked, \"ResultLedger: reentrant call\");\n        _locked = true;\n        _;\n        _locked = false;\n    }\n\n    struct ResultEntry {\n        bytes32 resultHash;      // SHA-256 integrity hash\n        string  ipfsCID;         // Encrypted result pointer\n        uint256 timestamp;\n        address submittedBy;\n        bool    isUpdate;\n        uint256 score;\n        uint256 totalQuestions;\n    }\n\n    mapping(address => mapping(uint256 => ResultEntry[])) private _results;\n    mapping(address => mapping(uint256 => bool)) public hasSubmitted;\n\n    event ResultSubmitted(\n        address indexed student,\n        uint256 indexed examId,\n        bytes32 resultHash,\n        string  ipfsCID,\n        uint256 score,\n        uint256 totalQuestions,\n        bool    isUpdate,\n        address submittedBy\n    );\n\n    constructor(address _roleManager, address _auditLog, address _examManager, address _feeVault) {\n        roleManager = RoleManager(_roleManager);\n        auditLog    = AuditLog(_auditLog);\n        examManager = _examManager;\n        feeVault    = _feeVault;\n    }\n\n    function submitResult(\n        address student,\n        uint256 examId,\n        bytes32 resultHash,\n        string  calldata ipfsCID,\n        uint256 score,\n        uint256 totalQuestions\n    ) external noReentrant {\n        bool isTeacher = roleManager.isTeacher(msg.sender);\n        bool isStudent = roleManager.isStudent(msg.sender);\n        require(isTeacher || isStudent, \"ResultLedger: unauthorized sender\");\n\n        // 1. If student submits: must be first time\n        if (isStudent && !isTeacher) {\n            require(msg.sender == student, \"ResultLedger: not student wallet\");\n            require(!hasSubmitted[student][examId], \"ResultLedger: already submitted\");\n            hasSubmitted[student][examId] = true;\n        }\n\n        // 2. If teacher updates: Must be original exam teacher\n        bool isUpdate = _results[student][examId].length > 0;\n        if (isUpdate && isTeacher) {\n             (, , address teacherAddr, , , , ) = IExamManager(examManager).getExam(examId);\n             require(msg.sender == teacherAddr, \"ResultLedger: not exam teacher\");\n        }\n\n        _results[student][examId].push(ResultEntry({\n            resultHash:     resultHash,\n            ipfsCID:        ipfsCID,\n            timestamp:      block.timestamp,\n            submittedBy:    msg.sender,\n            isUpdate:       isUpdate,\n            score:          score,\n            totalQuestions: totalQuestions\n        }));\n\n        auditLog.logEvent(\n            isUpdate ? \"ResultUpdated\" : \"ResultSubmitted\",\n            student,\n            string(abi.encodePacked(\"Exam \", _uint2str(examId)))\n        );\n\n        emit ResultSubmitted(student, examId, resultHash, ipfsCID, score, totalQuestions, isUpdate, msg.sender);\n    }\n\n    function getResultHistory(address student, uint256 examId) external view returns (ResultEntry[] memory) {\n        return _results[student][examId];\n    }\n\n    function getLatestResult(address student, uint256 examId) external view returns (ResultEntry memory) {\n        ResultEntry[] storage entries = _results[student][examId];\n        require(entries.length > 0, \"ResultLedger: zero results\");\n        return entries[entries.length - 1];\n    }\n\n    function _uint2str(uint256 n) internal pure returns (string memory) {\n        if (n == 0) return \"0\";\n        uint256 j = n; uint256 len;\n        while (j != 0) { len++; j /= 10; }\n        bytes memory bstr = new bytes(len);\n        uint256 k = len;\n        while (n != 0) {\n            k--;\n            bstr[k] = bytes1(uint8(48 + (n % 10)));\n            n /= 10;\n        }\n        return string(bstr);\n    }\n}\n",
  "sourcePath": "D:\\Downloads\\chainedu-nexus-main\\chainedu-nexus-main\\backend\\contracts\\ResultLedger.sol",
  "compiler": {
    "name": "solc",
    "version": "0.8.20+commit.a1b79de6.Emscripten.clang"
  },
  "schemaVersion": "3.4.16",
  "updatedAt": "2026-03-29T18:42:39.665Z",
  "devdoc": {
    "kind": "dev",
    "methods": {},
    "version": 1
  },
  "userdoc": {
    "kind": "user",
    "methods": {},
    "notice": "ResultLedger.sol — Immutable Academic Registry",
    "version": 1
  }
}