{
  "contractName": "RoleManager",
  "abi": [
    {
      "inputs": [
        {
          "internalType": "address",
          "name": "_adminAddress",
          "type": "address"
        },
        {
          "internalType": "address",
          "name": "_auditLog",
          "type": "address"
        }
      ],
      "stateMutability": "nonpayable",
      "type": "constructor"
    },
    {
      "anonymous": false,
      "inputs": [
        {
          "indexed": true,
          "internalType": "bytes32",
          "name": "linkHash",
          "type": "bytes32"
        },
        {
          "indexed": true,
          "internalType": "address",
          "name": "user",
          "type": "address"
        }
      ],
      "name": "LinkConsumed",
      "type": "event"
    },
    {
      "anonymous": false,
      "inputs": [
        {
          "indexed": true,
          "internalType": "address",
          "name": "user",
          "type": "address"
        },
        {
          "indexed": false,
          "internalType": "enum RoleManager.Role",
          "name": "role",
          "type": "uint8"
        },
        {
          "indexed": true,
          "internalType": "address",
          "name": "by",
          "type": "address"
        }
      ],
      "name": "RoleGranted",
      "type": "event"
    },
    {
      "anonymous": false,
      "inputs": [
        {
          "indexed": true,
          "internalType": "address",
          "name": "user",
          "type": "address"
        },
        {
          "indexed": true,
          "internalType": "address",
          "name": "by",
          "type": "address"
        }
      ],
      "name": "RoleRevoked",
      "type": "event"
    },
    {
      "anonymous": false,
      "inputs": [
        {
          "indexed": true,
          "internalType": "address",
          "name": "teacher",
          "type": "address"
        },
        {
          "indexed": true,
          "internalType": "address",
          "name": "student",
          "type": "address"
        },
        {
          "indexed": true,
          "internalType": "address",
          "name": "by",
          "type": "address"
        }
      ],
      "name": "StudentAssigned",
      "type": "event"
    },
    {
      "anonymous": false,
      "inputs": [
        {
          "indexed": true,
          "internalType": "address",
          "name": "user",
          "type": "address"
        },
        {
          "indexed": true,
          "internalType": "address",
          "name": "by",
          "type": "address"
        }
      ],
      "name": "SubAdminGranted",
      "type": "event"
    },
    {
      "inputs": [],
      "name": "auditLog",
      "outputs": [
        {
          "internalType": "contract AuditLog",
          "name": "",
          "type": "address"
        }
      ],
      "stateMutability": "view",
      "type": "function"
    },
    {
      "inputs": [
        {
          "internalType": "address",
          "name": "",
          "type": "address"
        },
        {
          "internalType": "uint256",
          "name": "",
          "type": "uint256"
        }
      ],
      "name": "teacherStudents",
      "outputs": [
        {
          "internalType": "address",
          "name": "",
          "type": "address"
        }
      ],
      "stateMutability": "view",
      "type": "function"
    },
    {
      "inputs": [
        {
          "internalType": "bytes32",
          "name": "",
          "type": "bytes32"
        }
      ],
      "name": "usedLinks",
      "outputs": [
        {
          "internalType": "bool",
          "name": "",
          "type": "bool"
        }
      ],
      "stateMutability": "view",
      "type": "function"
    },
    {
      "inputs": [
        {
          "internalType": "address",
          "name": "user",
          "type": "address"
        }
      ],
      "name": "getRole",
      "outputs": [
        {
          "internalType": "string",
          "name": "",
          "type": "string"
        }
      ],
      "stateMutability": "view",
      "type": "function"
    },
    {
      "inputs": [
        {
          "internalType": "address",
          "name": "user",
          "type": "address"
        }
      ],
      "name": "getRoleEnum",
      "outputs": [
        {
          "internalType": "enum RoleManager.Role",
          "name": "",
          "type": "uint8"
        }
      ],
      "stateMutability": "view",
      "type": "function"
    },
    {
      "inputs": [
        {
          "internalType": "address",
          "name": "user",
          "type": "address"
        }
      ],
      "name": "isAdmin",
      "outputs": [
        {
          "internalType": "bool",
          "name": "",
          "type": "bool"
        }
      ],
      "stateMutability": "view",
      "type": "function"
    },
    {
      "inputs": [
        {
          "internalType": "address",
          "name": "user",
          "type": "address"
        }
      ],
      "name": "isSubAdmin",
      "outputs": [
        {
          "internalType": "bool",
          "name": "",
          "type": "bool"
        }
      ],
      "stateMutability": "view",
      "type": "function"
    },
    {
      "inputs": [
        {
          "internalType": "address",
          "name": "user",
          "type": "address"
        }
      ],
      "name": "isTeacher",
      "outputs": [
        {
          "internalType": "bool",
          "name": "",
          "type": "bool"
        }
      ],
      "stateMutability": "view",
      "type": "function"
    },
    {
      "inputs": [
        {
          "internalType": "address",
          "name": "user",
          "type": "address"
        }
      ],
      "name": "isStudent",
      "outputs": [
        {
          "internalType": "bool",
          "name": "",
          "type": "bool"
        }
      ],
      "stateMutability": "view",
      "type": "function"
    },
    {
      "inputs": [
        {
          "internalType": "address",
          "name": "user",
          "type": "address"
        }
      ],
      "name": "grantSubAdmin",
      "outputs": [],
      "stateMutability": "nonpayable",
      "type": "function"
    },
    {
      "inputs": [
        {
          "internalType": "address",
          "name": "user",
          "type": "address"
        }
      ],
      "name": "grantTeacher",
      "outputs": [],
      "stateMutability": "nonpayable",
      "type": "function"
    },
    {
      "inputs": [
        {
          "internalType": "address",
          "name": "user",
          "type": "address"
        }
      ],
      "name": "grantStudent",
      "outputs": [],
      "stateMutability": "nonpayable",
      "type": "function"
    },
    {
      "inputs": [
        {
          "internalType": "address",
          "name": "teacher",
          "type": "address"
        },
        {
          "internalType": "address",
          "name": "student",
          "type": "address"
        }
      ],
      "name": "assignStudentToTeacher",
      "outputs": [],
      "stateMutability": "nonpayable",
      "type": "function"
    },
    {
      "inputs": [
        {
          "internalType": "address",
          "name": "teacher",
          "type": "address"
        }
      ],
      "name": "getTeacherStudents",
      "outputs": [
        {
          "internalType": "address[]",
          "name": "",
          "type": "address[]"
        }
      ],
      "stateMutability": "view",
      "type": "function"
    },
    {
      "inputs": [
        {
          "internalType": "bytes32",
          "name": "linkHash",
          "type": "bytes32"
        },
        {
          "internalType": "address",
          "name": "user",
          "type": "address"
        }
      ],
      "name": "consumeLink",
      "outputs": [],
      "stateMutability": "nonpayable",
      "type": "function"
    },
    {
      "inputs": [
        {
          "internalType": "address",
          "name": "user",
          "type": "address"
        }
      ],
      "name": "revokeRole",
      "outputs": [],
      "stateMutability": "nonpayable",
      "type": "function"
    }
  ],
  "bytecode": "0x60806040523480156200001157600080fd5b5060405162002fe538038062002fe58339818101604052810190620000379190620002bf565b600073ffffffffffffffffffffffffffffffffffffffff168273ffffffffffffffffffffffffffffffffffffffff1603620000a9576040517f08c379a0000000000000000000000000000000000000000000000000000000008152600401620000a09062000367565b60405180910390fd5b60046000808473ffffffffffffffffffffffffffffffffffffffff1673ffffffffffffffffffffffffffffffffffffffff16815260200190815260200160002060006101000a81548160ff021916908360048111156200010e576200010d62000389565b5b021790555080600360006101000a81548173ffffffffffffffffffffffffffffffffffffffff021916908373ffffffffffffffffffffffffffffffffffffffff160217905550600360009054906101000a900473ffffffffffffffffffffffffffffffffffffffff1673ffffffffffffffffffffffffffffffffffffffff1663faf324fd836040518263ffffffff1660e01b8152600401620001b1919062000469565b600060405180830381600087803b158015620001cc57600080fd5b505af1158015620001e1573d6000803e3d6000fd5b505050508173ffffffffffffffffffffffffffffffffffffffff168273ffffffffffffffffffffffffffffffffffffffff167f454d3be37ac6a7b902340e5413df5663e10f86d1a576286058188216404a88ef600460405162000245919062000501565b60405180910390a350506200051e565b600080fd5b600073ffffffffffffffffffffffffffffffffffffffff82169050919050565b600062000287826200025a565b9050919050565b62000299816200027a565b8114620002a557600080fd5b50565b600081519050620002b9816200028e565b92915050565b60008060408385031215620002d957620002d862000255565b5b6000620002e985828601620002a8565b9250506020620002fc85828601620002a8565b9150509250929050565b600082825260208201905092915050565b7f526f6c654d616e616765723a207a65726f2061646d696e206164647265737300600082015250565b60006200034f601f8362000306565b91506200035c8262000317565b602082019050919050565b60006020820190508181036000830152620003828162000340565b9050919050565b7f4e487b7100000000000000000000000000000000000000000000000000000000600052602160045260246000fd5b7f53797374656d0000000000000000000000000000000000000000000000000000600082015250565b6000620003f060068362000306565b9150620003fd82620003b8565b602082019050919050565b62000413816200027a565b82525050565b7f41646d696e20696e697469616c697a6564000000000000000000000000000000600082015250565b60006200045160118362000306565b91506200045e8262000419565b602082019050919050565b600060608201905081810360008301526200048481620003e1565b905062000495602083018462000408565b8181036040830152620004a88162000442565b905092915050565b60058110620004c457620004c362000389565b5b50565b6000819050620004d782620004b0565b919050565b6000620004e982620004c7565b9050919050565b620004fb81620004dc565b82525050565b6000602082019050620005186000830184620004f0565b92915050565b612ab7806200052e6000396000f3fe608060405234801561001057600080fd5b50600436106101005760003560e01c80636b335f9d11610097578063aec37eb311610066578063aec37eb3146102cf578063d1c63b21146102ff578063e90175eb1461032f578063f59d3abe1461035f57610100565b80636b335f9d1461023757806371c5f5001461026757806380e52e3f1461028357806382f7d3921461029f57610100565b80633f3eca7e116100d35780633f3eca7e1461019d57806344276733146101cd5780634d910929146101fd5780635a2d6ebd1461021957610100565b806324d7806c146101055780632b8c3e9014610135578063301f023114610165578063313efd2f14610181575b600080fd5b61011f600480360381019061011a9190611d16565b61037b565b60405161012c9190611d5e565b60405180910390f35b61014f600480360381019061014a9190611daf565b6103f6565b60405161015c9190611dfe565b60405180910390f35b61017f600480360381019061017a9190611e4f565b610444565b005b61019b60048036038101906101969190611d16565b610644565b005b6101b760048036038101906101b29190611d16565b6109f8565b6040516101c49190611f06565b60405180910390f35b6101e760048036038101906101e29190611d16565b610a4d565b6040516101f49190611fb1565b60405180910390f35b61021760048036038101906102129190611d16565b610c85565b005b610221610f9f565b60405161022e9190612032565b60405180910390f35b610251600480360381019061024c919061204d565b610fc5565b60405161025e9190611d5e565b60405180910390f35b610281600480360381019061027c919061207a565b610fe5565b005b61029d60048036038101906102989190611d16565b611416565b005b6102b960048036038101906102b49190611d16565b611738565b6040516102c69190611d5e565b60405180910390f35b6102e960048036038101906102e49190611d16565b6117b4565b6040516102f69190611d5e565b60405180910390f35b61031960048036038101906103149190611d16565b611830565b6040516103269190611d5e565b60405180910390f35b61034960048036038101906103449190611d16565b6118ac565b6040516103569190612178565b60405180910390f35b61037960048036038101906103749190611d16565b611979565b005b60006004808111156103905761038f611e8f565b5b6000808473ffffffffffffffffffffffffffffffffffffffff1673ffffffffffffffffffffffffffffffffffffffff16815260200190815260200160002060009054906101000a900460ff1660048111156103ee576103ed611e8f565b5b149050919050565b6001602052816000526040600020818154811061041257600080fd5b906000526020600020016000915091509054906101000a900473ffffffffffffffffffffffffffffffffffffffff1681565b60048081111561045757610456611e8f565b5b6000803373ffffffffffffffffffffffffffffffffffffffff1673ffffffffffffffffffffffffffffffffffffffff16815260200190815260200160002060009054906101000a900460ff1660048111156104b5576104b4611e8f565b5b14806105305750600360048111156104d0576104cf611e8f565b5b6000803373ffffffffffffffffffffffffffffffffffffffff1673ffffffffffffffffffffffffffffffffffffffff16815260200190815260200160002060009054906101000a900460ff16600481111561052e5761052d611e8f565b5b145b61056f576040517f08c379a00000000000000000000000000000000000000000000000000000000081526004016105669061220c565b60405180910390fd5b6002600083815260200190815260200160002060009054906101000a900460ff16156105d0576040517f08c379a00000000000000000000000000000000000000000000000000000000081526004016105c79061229e565b60405180910390fd5b60016002600084815260200190815260200160002060006101000a81548160ff0219169083151502179055508073ffffffffffffffffffffffffffffffffffffffff16827f77af5e09d80c484fdc62a04fe4dd6ecfc8e71c9981ec1078824504317120aeed60405160405180910390a35050565b60048081111561065757610656611e8f565b5b6000803373ffffffffffffffffffffffffffffffffffffffff1673ffffffffffffffffffffffffffffffffffffffff16815260200190815260200160002060009054906101000a900460ff1660048111156106b5576106b4611e8f565b5b14806107305750600360048111156106d0576106cf611e8f565b5b6000803373ffffffffffffffffffffffffffffffffffffffff1673ffffffffffffffffffffffffffffffffffffffff16815260200190815260200160002060009054906101000a900460ff16600481111561072e5761072d611e8f565b5b145b806107aa57506002600481111561074a57610749611e8f565b5b6000803373ffffffffffffffffffffffffffffffffffffffff1673ffffffffffffffffffffffffffffffffffffffff16815260200190815260200160002060009054906101000a900460ff1660048111156107a8576107a7611e8f565b5b145b6107e9576040517f08c379a00000000000000000000000000000000000000000000000000000000081526004016107e090612330565b60405180910390fd5b600060048111156107fd576107fc611e8f565b5b6000808373ffffffffffffffffffffffffffffffffffffffff1673ffffffffffffffffffffffffffffffffffffffff16815260200190815260200160002060009054906101000a900460ff16600481111561085b5761085a611e8f565b5b1461089b576040517f08c379a0000000000000000000000000000000000000000000000000000000008152600401610892906123c2565b60405180910390fd5b60016000808373ffffffffffffffffffffffffffffffffffffffff1673ffffffffffffffffffffffffffffffffffffffff16815260200190815260200160002060006101000a81548160ff021916908360048111156108fd576108fc611e8f565b5b0217905550600360009054906101000a900473ffffffffffffffffffffffffffffffffffffffff1673ffffffffffffffffffffffffffffffffffffffff1663faf324fd826040518263ffffffff1660e01b815260040161095d919061247a565b600060405180830381600087803b15801561097757600080fd5b505af115801561098b573d6000803e3d6000fd5b505050503373ffffffffffffffffffffffffffffffffffffffff168173ffffffffffffffffffffffffffffffffffffffff167f454d3be37ac6a7b902340e5413df5663e10f86d1a576286058188216404a88ef60016040516109ed9190611f06565b60405180910390a350565b60008060008373ffffffffffffffffffffffffffffffffffffffff1673ffffffffffffffffffffffffffffffffffffffff16815260200190815260200160002060009054906101000a900460ff169050919050565b606060008060008473ffffffffffffffffffffffffffffffffffffffff1673ffffffffffffffffffffffffffffffffffffffff16815260200190815260200160002060009054906101000a900460ff169050600480811115610ab257610ab1611e8f565b5b816004811115610ac557610ac4611e8f565b5b03610b08576040518060400160405280600581526020017f41444d494e000000000000000000000000000000000000000000000000000000815250915050610c80565b60036004811115610b1c57610b1b611e8f565b5b816004811115610b2f57610b2e611e8f565b5b03610b72576040518060400160405280600981526020017f5355425f41444d494e0000000000000000000000000000000000000000000000815250915050610c80565b60026004811115610b8657610b85611e8f565b5b816004811115610b9957610b98611e8f565b5b03610bdc576040518060400160405280600781526020017f5445414348455200000000000000000000000000000000000000000000000000815250915050610c80565b60016004811115610bf057610bef611e8f565b5b816004811115610c0357610c02611e8f565b5b03610c46576040518060400160405280600781526020017f53545544454e5400000000000000000000000000000000000000000000000000815250915050610c80565b6040518060400160405280600481526020017f4e4f4e45000000000000000000000000000000000000000000000000000000008152509150505b919050565b600480811115610c9857610c97611e8f565b5b6000803373ffffffffffffffffffffffffffffffffffffffff1673ffffffffffffffffffffffffffffffffffffffff16815260200190815260200160002060009054906101000a900460ff166004811115610cf657610cf5611e8f565b5b14610d36576040517f08c379a0000000000000000000000000000000000000000000000000000000008152600401610d2d90612507565b60405180910390fd5b60006004811115610d4a57610d49611e8f565b5b6000808373ffffffffffffffffffffffffffffffffffffffff1673ffffffffffffffffffffffffffffffffffffffff16815260200190815260200160002060009054906101000a900460ff166004811115610da857610da7611e8f565b5b14610de8576040517f08c379a0000000000000000000000000000000000000000000000000000000008152600401610ddf90612573565b60405180910390fd5b60036000808373ffffffffffffffffffffffffffffffffffffffff1673ffffffffffffffffffffffffffffffffffffffff16815260200190815260200160002060006101000a81548160ff02191690836004811115610e4a57610e49611e8f565b5b0217905550600360009054906101000a900473ffffffffffffffffffffffffffffffffffffffff1673ffffffffffffffffffffffffffffffffffffffff1663faf324fd826040518263ffffffff1660e01b8152600401610eaa919061262b565b600060405180830381600087803b158015610ec457600080fd5b505af1158015610ed8573d6000803e3d6000fd5b505050503373ffffffffffffffffffffffffffffffffffffffff168173ffffffffffffffffffffffffffffffffffffffff167ffd3162804eea62c6f1696123cb742d788e041ed7797bbea988d5e542d587c9dd60405160405180910390a33373ffffffffffffffffffffffffffffffffffffffff168173ffffffffffffffffffffffffffffffffffffffff167f454d3be37ac6a7b902340e5413df5663e10f86d1a576286058188216404a88ef6003604051610f949190611f06565b60405180910390a350565b600360009054906101000a900473ffffffffffffffffffffffffffffffffffffffff1681565b60026020528060005260406000206000915054906101000a900460ff1681565b600480811115610ff857610ff7611e8f565b5b6000803373ffffffffffffffffffffffffffffffffffffffff1673ffffffffffffffffffffffffffffffffffffffff16815260200190815260200160002060009054906101000a900460ff16600481111561105657611055611e8f565b5b14806110d157506003600481111561107157611070611e8f565b5b6000803373ffffffffffffffffffffffffffffffffffffffff1673ffffffffffffffffffffffffffffffffffffffff16815260200190815260200160002060009054906101000a900460ff1660048111156110cf576110ce611e8f565b5b145b611110576040517f08c379a00000000000000000000000000000000000000000000000000000000081526004016111079061220c565b60405180910390fd5b6002600481111561112457611123611e8f565b5b6000808473ffffffffffffffffffffffffffffffffffffffff1673ffffffffffffffffffffffffffffffffffffffff16815260200190815260200160002060009054906101000a900460ff16600481111561118257611181611e8f565b5b146111c2576040517f08c379a00000000000000000000000000000000000000000000000000000000081526004016111b9906126b8565b60405180910390fd5b600160048111156111d6576111d5611e8f565b5b6000808373ffffffffffffffffffffffffffffffffffffffff1673ffffffffffffffffffffffffffffffffffffffff16815260200190815260200160002060009054906101000a900460ff16600481111561123457611233611e8f565b5b14611274576040517f08c379a000000000000000000000000000000000000000000000000000000000815260040161126b90612724565b60405180910390fd5b600160008373ffffffffffffffffffffffffffffffffffffffff1673ffffffffffffffffffffffffffffffffffffffff168152602001908152602001600020819080600181540180825580915050600190039060005260206000200160009091909190916101000a81548173ffffffffffffffffffffffffffffffffffffffff021916908373ffffffffffffffffffffffffffffffffffffffff160217905550600360009054906101000a900473ffffffffffffffffffffffffffffffffffffffff1673ffffffffffffffffffffffffffffffffffffffff1663faf324fd826040518263ffffffff1660e01b815260040161136f91906127dc565b600060405180830381600087803b15801561138957600080fd5b505af115801561139d573d6000803e3d6000fd5b505050503373ffffffffffffffffffffffffffffffffffffffff168173ffffffffffffffffffffffffffffffffffffffff168373ffffffffffffffffffffffffffffffffffffffff167f9a7fe21a38696ab87e1c1f5631afdb25798855bc08daecc68860f826ef9598e460405160405180910390a45050565b60048081111561142957611428611e8f565b5b6000803373ffffffffffffffffffffffffffffffffffffffff1673ffffffffffffffffffffffffffffffffffffffff16815260200190815260200160002060009054906101000a900460ff16600481111561148757611486611e8f565b5b146114c7576040517f08c379a00000000000000000000000000000000000000000000000000000000081526004016114be90612507565b60405180910390fd5b3373ffffffffffffffffffffffffffffffffffffffff168173ffffffffffffffffffffffffffffffffffffffff1603611535576040517f08c379a000000000000000000000000000000000000000000000000000000000815260040161152c9061288f565b60405180910390fd5b6000600481111561154957611548611e8f565b5b6000808373ffffffffffffffffffffffffffffffffffffffff1673ffffffffffffffffffffffffffffffffffffffff16815260200190815260200160002060009054906101000a900460ff1660048111156115a7576115a6611e8f565b5b036115e7576040517f08c379a00000000000000000000000000000000000000000000000000000000081526004016115de906128fb565b60405180910390fd5b60008060008373ffffffffffffffffffffffffffffffffffffffff1673ffffffffffffffffffffffffffffffffffffffff16815260200190815260200160002060006101000a81548160ff0219169083600481111561164957611648611e8f565b5b0217905550600360009054906101000a900473ffffffffffffffffffffffffffffffffffffffff1673ffffffffffffffffffffffffffffffffffffffff1663faf324fd826040518263ffffffff1660e01b81526004016116a991906129b3565b600060405180830381600087803b1580156116c357600080fd5b505af11580156116d7573d6000803e3d6000fd5b505050503373ffffffffffffffffffffffffffffffffffffffff168173ffffffffffffffffffffffffffffffffffffffff167faa398d91fbfd49750ac42f4eec94ae598fe811c6d9df14b4f2f176e9dac6871460405160405180910390a350565b60006001600481111561174e5761174d611e8f565b5b6000808473ffffffffffffffffffffffffffffffffffffffff1673ffffffffffffffffffffffffffffffffffffffff16815260200190815260200160002060009054906101000a900460ff1660048111156117ac576117ab611e8f565b5b149050919050565b6000600260048111156117ca576117c9611e8f565b5b6000808473ffffffffffffffffffffffffffffffffffffffff1673ffffffffffffffffffffffffffffffffffffffff16815260200190815260200160002060009054906101000a900460ff16600481111561182857611827611e8f565b5b149050919050565b60006003600481111561184657611845611e8f565b5b6000808473ffffffffffffffffffffffffffffffffffffffff1673ffffffffffffffffffffffffffffffffffffffff16815260200190815260200160002060009054906101000a900460ff1660048111156118a4576118a3611e8f565b5b149050919050565b6060600160008373ffffffffffffffffffffffffffffffffffffffff1673ffffffffffffffffffffffffffffffffffffffff16815260200190815260200160002080548060200260200160405190810160405280929190818152602001828054801561196d57602002820191906000526020600020905b8160009054906101000a900473ffffffffffffffffffffffffffffffffffffffff1673ffffffffffffffffffffffffffffffffffffffff1681526020019060010190808311611923575b50505050509050919050565b60048081111561198c5761198b611e8f565b5b6000803373ffffffffffffffffffffffffffffffffffffffff1673ffffffffffffffffffffffffffffffffffffffff16815260200190815260200160002060009054906101000a900460ff1660048111156119ea576119e9611e8f565b5b1480611a65575060036004811115611a0557611a04611e8f565b5b6000803373ffffffffffffffffffffffffffffffffffffffff1673ffffffffffffffffffffffffffffffffffffffff16815260200190815260200160002060009054906101000a900460ff166004811115611a6357611a62611e8f565b5b145b611aa4576040517f08c379a0000000000000000000000000000000000000000000000000000000008152600401611a9b9061220c565b60405180910390fd5b60006004811115611ab857611ab7611e8f565b5b6000808373ffffffffffffffffffffffffffffffffffffffff1673ffffffffffffffffffffffffffffffffffffffff16815260200190815260200160002060009054906101000a900460ff166004811115611b1657611b15611e8f565b5b14611b56576040517f08c379a0000000000000000000000000000000000000000000000000000000008152600401611b4d906123c2565b60405180910390fd5b60026000808373ffffffffffffffffffffffffffffffffffffffff1673ffffffffffffffffffffffffffffffffffffffff16815260200190815260200160002060006101000a81548160ff02191690836004811115611bb857611bb7611e8f565b5b0217905550600360009054906101000a900473ffffffffffffffffffffffffffffffffffffffff1673ffffffffffffffffffffffffffffffffffffffff1663faf324fd826040518263ffffffff1660e01b8152600401611c189190612a40565b600060405180830381600087803b158015611c3257600080fd5b505af1158015611c46573d6000803e3d6000fd5b505050503373ffffffffffffffffffffffffffffffffffffffff168173ffffffffffffffffffffffffffffffffffffffff167f454d3be37ac6a7b902340e5413df5663e10f86d1a576286058188216404a88ef6002604051611ca89190611f06565b60405180910390a350565b600080fd5b600073ffffffffffffffffffffffffffffffffffffffff82169050919050565b6000611ce382611cb8565b9050919050565b611cf381611cd8565b8114611cfe57600080fd5b50565b600081359050611d1081611cea565b92915050565b600060208284031215611d2c57611d2b611cb3565b5b6000611d3a84828501611d01565b91505092915050565b60008115159050919050565b611d5881611d43565b82525050565b6000602082019050611d736000830184611d4f565b92915050565b6000819050919050565b611d8c81611d79565b8114611d9757600080fd5b50565b600081359050611da981611d83565b92915050565b60008060408385031215611dc657611dc5611cb3565b5b6000611dd485828601611d01565b9250506020611de585828601611d9a565b9150509250929050565b611df881611cd8565b82525050565b6000602082019050611e136000830184611def565b92915050565b6000819050919050565b611e2c81611e19565b8114611e3757600080fd5b50565b600081359050611e4981611e23565b92915050565b60008060408385031215611e6657611e65611cb3565b5b6000611e7485828601611e3a565b9250506020611e8585828601611d01565b9150509250929050565b7f4e487b7100000000000000000000000000000000000000000000000000000000600052602160045260246000fd5b60058110611ecf57611ece611e8f565b5b50565b6000819050611ee082611ebe565b919050565b6000611ef082611ed2565b9050919050565b611f0081611ee5565b82525050565b6000602082019050611f1b6000830184611ef7565b92915050565b600081519050919050565b600082825260208201905092915050565b60005b83811015611f5b578082015181840152602081019050611f40565b60008484015250505050565b6000601f19601f8301169050919050565b6000611f8382611f21565b611f8d8185611f2c565b9350611f9d818560208601611f3d565b611fa681611f67565b840191505092915050565b60006020820190508181036000830152611fcb8184611f78565b905092915050565b6000819050919050565b6000611ff8611ff3611fee84611cb8565b611fd3565b611cb8565b9050919050565b600061200a82611fdd565b9050919050565b600061201c82611fff565b9050919050565b61202c81612011565b82525050565b60006020820190506120476000830184612023565b92915050565b60006020828403121561206357612062611cb3565b5b600061207184828501611e3a565b91505092915050565b6000806040838503121561209157612090611cb3565b5b600061209f85828601611d01565b92505060206120b085828601611d01565b9150509250929050565b600081519050919050565b600082825260208201905092915050565b6000819050602082019050919050565b6120ef81611cd8565b82525050565b600061210183836120e6565b60208301905092915050565b6000602082019050919050565b6000612125826120ba565b61212f81856120c5565b935061213a836120d6565b8060005b8381101561216b57815161215288826120f5565b975061215d8361210d565b92505060018101905061213e565b5085935050505092915050565b60006020820190508181036000830152612192818461211a565b905092915050565b7f526f6c654d616e616765723a206e6f742061646d696e206f72207375622d616460008201527f6d696e0000000000000000000000000000000000000000000000000000000000602082015250565b60006121f6602383611f2c565b91506122018261219a565b604082019050919050565b60006020820190508181036000830152612225816121e9565b9050919050565b7f526f6c654d616e616765723a206c696e6b20616c726561647920636f6e73756d60008201527f6564000000000000000000000000000000000000000000000000000000000000602082015250565b6000612288602283611f2c565b91506122938261222c565b604082019050919050565b600060208201905081810360008301526122b78161227b565b9050919050565b7f526f6c654d616e616765723a20696e73756666696369656e742070726976696c60008201527f6567657300000000000000000000000000000000000000000000000000000000602082015250565b600061231a602483611f2c565b9150612325826122be565b604082019050919050565b600060208201905081810360008301526123498161230d565b9050919050565b7f526f6c654d616e616765723a206164647265737320616c72656164792068617360008201527f206120726f6c6500000000000000000000000000000000000000000000000000602082015250565b60006123ac602783611f2c565b91506123b782612350565b604082019050919050565b600060208201905081810360008301526123db8161239f565b9050919050565b7f526f6c654772616e746564000000000000000000000000000000000000000000600082015250565b6000612418600b83611f2c565b9150612423826123e2565b602082019050919050565b7f4772616e7465642053545544454e5420726f6c65000000000000000000000000600082015250565b6000612464601483611f2c565b915061246f8261242e565b602082019050919050565b600060608201905081810360008301526124938161240b565b90506124a26020830184611def565b81810360408301526124b381612457565b905092915050565b7f526f6c654d616e616765723a206e6f742061646d696e00000000000000000000600082015250565b60006124f1601683611f2c565b91506124fc826124bb565b602082019050919050565b60006020820190508181036000830152612520816124e4565b9050919050565b7f526f6c654d616e616765723a20616c726561647920686173206120726f6c6500600082015250565b600061255d601f83611f2c565b915061256882612527565b602082019050919050565b6000602082019050818103600083015261258c81612550565b9050919050565b7f53756241646d696e4772616e7465640000000000000000000000000000000000600082015250565b60006125c9600f83611f2c565b91506125d482612593565b602082019050919050565b7f41646d696e206772616e746564205355425f41444d494e20726f6c6500000000600082015250565b6000612615601c83611f2c565b9150612620826125df565b602082019050919050565b60006060820190508181036000830152612644816125bc565b90506126536020830184611def565b818103604083015261266481612608565b905092915050565b7f526f6c654d616e616765723a206e6f7420612074656163686572000000000000600082015250565b60006126a2601a83611f2c565b91506126ad8261266c565b602082019050919050565b600060208201905081810360008301526126d181612695565b9050919050565b7f526f6c654d616e616765723a206e6f7420612073747564656e74000000000000600082015250565b600061270e601a83611f2c565b9150612719826126d8565b602082019050919050565b6000602082019050818103600083015261273d81612701565b9050919050565b7f53747564656e7441737369676e65640000000000000000000000000000000000600082015250565b600061277a600f83611f2c565b915061278582612744565b602082019050919050565b7f41737369676e656420746f207465616368657200000000000000000000000000600082015250565b60006127c6601383611f2c565b91506127d182612790565b602082019050919050565b600060608201905081810360008301526127f58161276d565b90506128046020830184611def565b8181036040830152612815816127b9565b905092915050565b7f526f6c654d616e616765723a2063616e6e6f74207265766f6b65206f776e206160008201527f646d696e20726f6c650000000000000000000000000000000000000000000000602082015250565b6000612879602983611f2c565b91506128848261281d565b604082019050919050565b600060208201905081810360008301526128a88161286c565b9050919050565b7f526f6c654d616e616765723a206164647265737320686173206e6f20726f6c65600082015250565b60006128e5602083611f2c565b91506128f0826128af565b602082019050919050565b60006020820190508181036000830152612914816128d8565b9050919050565b7f526f6c655265766f6b6564000000000000000000000000000000000000000000600082015250565b6000612951600b83611f2c565b915061295c8261291b565b602082019050919050565b7f41646d696e207265766f6b656420726f6c650000000000000000000000000000600082015250565b600061299d601283611f2c565b91506129a882612967565b602082019050919050565b600060608201905081810360008301526129cc81612944565b90506129db6020830184611def565b81810360408301526129ec81612990565b905092915050565b7f4772616e746564205445414348455220726f6c65000000000000000000000000600082015250565b6000612a2a601483611f2c565b9150612a35826129f4565b602082019050919050565b60006060820190508181036000830152612a598161240b565b9050612a686020830184611def565b8181036040830152612a7981612a1d565b90509291505056fea2646970667358221220739f0e73b2cabf32ef9f3b279dfe6b33ef9b4b2e7dd25b177e40a064f35dd17864736f6c63430008140033",
  "immutableReferences": {},
  "source": "// SPDX-License-Identifier: MIT\npragma solidity ^0.8.20;\n\nimport \"./AuditLog.sol\";\n\n/**\n * RoleManager.sol — Phase 2 upgrade\n *\n * New additions over baseline:\n *  ✅ Sub-admin support (sub-admin can grant TEACHER/STUDENT roles)\n *  ✅ Admin address injected from deployer (fixed from .env via migration)\n *  ✅ Teacher→Student mapping\n *  ✅ Registration link hash tracking (prevents link reuse on-chain)\n *  ✅ Events for every state change (off-chain indexing)\n */\ncontract RoleManager {\n\n    // ─── Roles ────────────────────────────────────────────────\n    enum Role { NONE, STUDENT, TEACHER, SUB_ADMIN, ADMIN }\n\n    // ─── State ────────────────────────────────────────────────\n    mapping(address => Role) private _roles;\n    mapping(address => address[]) public teacherStudents;    // teacher → students[]\n    mapping(bytes32 => bool) public usedLinks;               // linkHash → consumed\n\n    AuditLog public auditLog;\n\n    // ─── Events ───────────────────────────────────────────────\n    event RoleGranted(address indexed user, Role role, address indexed by);\n    event RoleRevoked(address indexed user, address indexed by);\n    event SubAdminGranted(address indexed user, address indexed by);\n    event StudentAssigned(address indexed teacher, address indexed student, address indexed by);\n    event LinkConsumed(bytes32 indexed linkHash, address indexed user);\n\n    // ─── Modifiers ────────────────────────────────────────────\n    modifier onlyAdmin() {\n        require(_roles[msg.sender] == Role.ADMIN, \"RoleManager: not admin\");\n        _;\n    }\n\n    modifier onlyAdminOrSubAdmin() {\n        require(\n            _roles[msg.sender] == Role.ADMIN || _roles[msg.sender] == Role.SUB_ADMIN,\n            \"RoleManager: not admin or sub-admin\"\n        );\n        _;\n    }\n\n    // ─── Constructor ──────────────────────────────────────────\n    /**\n     * @param _adminAddress  The permanent admin wallet (from .env / migration)\n     * @param _auditLog      Deployed AuditLog contract address\n     */\n    constructor(address _adminAddress, address _auditLog) {\n        require(_adminAddress != address(0), \"RoleManager: zero admin address\");\n        _roles[_adminAddress] = Role.ADMIN;\n        auditLog = AuditLog(_auditLog);\n        auditLog.logEvent(\"System\", _adminAddress, \"Admin initialized\");\n        emit RoleGranted(_adminAddress, Role.ADMIN, _adminAddress);\n    }\n\n    // ─── Role Getters ─────────────────────────────────────────\n    function getRole(address user) external view returns (string memory) {\n        Role r = _roles[user];\n        if (r == Role.ADMIN)     return \"ADMIN\";\n        if (r == Role.SUB_ADMIN) return \"SUB_ADMIN\";\n        if (r == Role.TEACHER)   return \"TEACHER\";\n        if (r == Role.STUDENT)   return \"STUDENT\";\n        return \"NONE\";\n    }\n\n    function getRoleEnum(address user) external view returns (Role) {\n        return _roles[user];\n    }\n\n    function isAdmin(address user) external view returns (bool) {\n        return _roles[user] == Role.ADMIN;\n    }\n\n    function isSubAdmin(address user) external view returns (bool) {\n        return _roles[user] == Role.SUB_ADMIN;\n    }\n\n    function isTeacher(address user) external view returns (bool) {\n        return _roles[user] == Role.TEACHER;\n    }\n\n    function isStudent(address user) external view returns (bool) {\n        return _roles[user] == Role.STUDENT;\n    }\n\n    // ─── Sub-Admin Management (Admin only) ────────────────────\n    function grantSubAdmin(address user) external onlyAdmin {\n        require(_roles[user] == Role.NONE, \"RoleManager: already has a role\");\n        _roles[user] = Role.SUB_ADMIN;\n        auditLog.logEvent(\"SubAdminGranted\", user, \"Admin granted SUB_ADMIN role\");\n        emit SubAdminGranted(user, msg.sender);\n        emit RoleGranted(user, Role.SUB_ADMIN, msg.sender);\n    }\n\n    // ─── Teacher Management (Admin or SubAdmin) ───────────────\n    function grantTeacher(address user) external onlyAdminOrSubAdmin {\n        require(_roles[user] == Role.NONE, \"RoleManager: address already has a role\");\n        _roles[user] = Role.TEACHER;\n        auditLog.logEvent(\"RoleGranted\", user, \"Granted TEACHER role\");\n        emit RoleGranted(user, Role.TEACHER, msg.sender);\n    }\n\n    // ─── Student Management (Admin, SubAdmin, or Teacher) ─────\n    function grantStudent(address user) external {\n        require(\n            _roles[msg.sender] == Role.ADMIN ||\n            _roles[msg.sender] == Role.SUB_ADMIN ||\n            _roles[msg.sender] == Role.TEACHER,\n            \"RoleManager: insufficient privileges\"\n        );\n        require(_roles[user] == Role.NONE, \"RoleManager: address already has a role\");\n        _roles[user] = Role.STUDENT;\n        auditLog.logEvent(\"RoleGranted\", user, \"Granted STUDENT role\");\n        emit RoleGranted(user, Role.STUDENT, msg.sender);\n    }\n\n    // ─── Teacher→Student Assignment ───────────────────────────\n    function assignStudentToTeacher(address teacher, address student) external onlyAdminOrSubAdmin {\n        require(_roles[teacher] == Role.TEACHER, \"RoleManager: not a teacher\");\n        require(_roles[student] == Role.STUDENT, \"RoleManager: not a student\");\n        teacherStudents[teacher].push(student);\n        auditLog.logEvent(\"StudentAssigned\", student, \"Assigned to teacher\");\n        emit StudentAssigned(teacher, student, msg.sender);\n    }\n\n    function getTeacherStudents(address teacher) external view returns (address[] memory) {\n        return teacherStudents[teacher];\n    }\n\n    // ─── Registration Link Tracking ───────────────────────────\n    /**\n     * Mark a registration link as consumed on-chain.\n     * linkHash = keccak256(linkId encoded as bytes)\n     */\n    function consumeLink(bytes32 linkHash, address user) external onlyAdminOrSubAdmin {\n        require(!usedLinks[linkHash], \"RoleManager: link already consumed\");\n        usedLinks[linkHash] = true;\n        emit LinkConsumed(linkHash, user);\n    }\n\n    // ─── Revoke ───────────────────────────────────────────────\n    function revokeRole(address user) external onlyAdmin {\n        require(user != msg.sender, \"RoleManager: cannot revoke own admin role\");\n        require(_roles[user] != Role.NONE, \"RoleManager: address has no role\");\n        _roles[user] = Role.NONE;\n        auditLog.logEvent(\"RoleRevoked\", user, \"Admin revoked role\");\n        emit RoleRevoked(user, msg.sender);\n    }\n}\n",
  "sourcePath": "D:\\Downloads\\chainedu-nexus-main\\chainedu-nexus-main\\backend\\contracts\\RoleManager.sol",
  "compiler": {
    "name": "solc",
    "version": "0.8.20+commit.a1b79de6.Emscripten.clang"
  },
  "schemaVersion": "3.4.16",
  "updatedAt": "2026-03-29T18:42:39.710Z",
  "devdoc": {
    "kind": "dev",
    "methods": {
      "constructor": {
        "params": {
          "_adminAddress": "The permanent admin wallet (from .env / migration)",
          "_auditLog": "Deployed AuditLog contract address"
        }
      }
    },
    "version": 1
  },
  "userdoc": {
    "kind": "user",
    "methods": {
      "consumeLink(bytes32,address)": {
        "notice": "Mark a registration link as consumed on-chain. linkHash = keccak256(linkId encoded as bytes)"
      }
    },
    "notice": "RoleManager.sol — Phase 2 upgrade New additions over baseline:  ✅ Sub-admin support (sub-admin can grant TEACHER/STUDENT roles)  ✅ Admin address injected from deployer (fixed from .env via migration)  ✅ Teacher→Student mapping  ✅ Registration link hash tracking (prevents link reuse on-chain)  ✅ Events for every state change (off-chain indexing)",
    "version": 1
  }
}