{
  "contractName": "AuditLog",
  "abi": [
    {
      "anonymous": false,
      "inputs": [
        {
          "indexed": false,
          "internalType": "string",
          "name": "eventType",
          "type": "string"
        },
        {
          "indexed": true,
          "internalType": "address",
          "name": "from",
          "type": "address"
        },
        {
          "indexed": true,
          "internalType": "address",
          "name": "to",
          "type": "address"
        },
        {
          "indexed": false,
          "internalType": "string",
          "name": "description",
          "type": "string"
        },
        {
          "indexed": false,
          "internalType": "uint256",
          "name": "timestamp",
          "type": "uint256"
        }
      ],
      "name": "EventLogged",
      "type": "event"
    },
    {
      "inputs": [
        {
          "internalType": "string",
          "name": "_eventType",
          "type": "string"
        },
        {
          "internalType": "address",
          "name": "_to",
          "type": "address"
        },
        {
          "internalType": "string",
          "name": "_description",
          "type": "string"
        }
      ],
      "name": "logEvent",
      "outputs": [],
      "stateMutability": "nonpayable",
      "type": "function"
    }
  ],
  "bytecode": "0x608060405234801561000f575f80fd5b5061025f8061001d5f395ff3fe608060405234801561000f575f80fd5b5060043610610029575f3560e01c8063faf324fd1461002d575b5f80fd5b61004061003b366004610133565b610042565b005b816001600160a01b0316336001600160a01b03167ff7f04ee33827e415453e8cc232460a091e0d078bc04716d2029b8bf02dccfff3858442604051610089939291906101f4565b60405180910390a3505050565b634e487b7160e01b5f52604160045260245ffd5b5f82601f8301126100b9575f80fd5b813567ffffffffffffffff808211156100d4576100d4610096565b604051601f8301601f19908116603f011681019082821181831017156100fc576100fc610096565b81604052838152866020858801011115610114575f80fd5b836020870160208301375f602085830101528094505050505092915050565b5f805f60608486031215610145575f80fd5b833567ffffffffffffffff8082111561015c575f80fd5b610168878388016100aa565b9450602086013591506001600160a01b0382168214610185575f80fd5b9092506040850135908082111561019a575f80fd5b506101a7868287016100aa565b9150509250925092565b5f81518084525f5b818110156101d5576020818501810151868301820152016101b9565b505f602082860101526020601f19601f83011685010191505092915050565b606081525f61020660608301866101b1565b828103602084015261021881866101b1565b91505082604083015294935050505056fea26469706673582212209aa456fb3421a53f5ea39dd5388b6b50983507da41ae4563ba3d38906904abf664736f6c63430008140033",
  "immutableReferences": {},
  "source": "// SPDX-License-Identifier: MIT\npragma solidity ^0.8.0;\n\ncontract AuditLog {\n    event EventLogged(\n        string eventType,\n        address indexed from,\n        address indexed to,\n        string description,\n        uint256 timestamp\n    );\n\n    function logEvent(string memory _eventType, address _to, string memory _description) external {\n        emit EventLogged(_eventType, msg.sender, _to, _description, block.timestamp);\n    }\n}\n",
  "sourcePath": "D:\\Downloads\\chainedu-nexus-main\\chainedu-nexus-main\\backend\\contracts\\AuditLog.sol",
  "compiler": {
    "name": "solc",
    "version": "0.8.20+commit.a1b79de6.Emscripten.clang"
  },
  "schemaVersion": "3.4.16",
  "updatedAt": "2026-03-23T18:29:34.227Z",
  "devdoc": {
    "kind": "dev",
    "methods": {},
    "version": 1
  },
  "userdoc": {
    "kind": "user",
    "methods": {},
    "version": 1
  }
}