{
  "contractName": "ExamManager",
  "abi": [
    {
      "inputs": [
        {
          "internalType": "address",
          "name": "_roleManagerAddress",
          "type": "address"
        },
        {
          "internalType": "address",
          "name": "_auditLogAddress",
          "type": "address"
        }
      ],
      "stateMutability": "nonpayable",
      "type": "constructor"
    },
    {
      "inputs": [],
      "name": "auditLog",
      "outputs": [
        {
          "internalType": "contract AuditLog",
          "name": "",
          "type": "address"
        }
      ],
      "stateMutability": "view",
      "type": "function"
    },
    {
      "inputs": [],
      "name": "examCount",
      "outputs": [
        {
          "internalType": "uint256",
          "name": "",
          "type": "uint256"
        }
      ],
      "stateMutability": "view",
      "type": "function"
    },
    {
      "inputs": [
        {
          "internalType": "uint256",
          "name": "",
          "type": "uint256"
        }
      ],
      "name": "exams",
      "outputs": [
        {
          "internalType": "string",
          "name": "cid",
          "type": "string"
        },
        {
          "internalType": "address",
          "name": "teacher",
          "type": "address"
        },
        {
          "internalType": "string",
          "name": "name",
          "type": "string"
        },
        {
          "internalType": "uint256",
          "name": "timestamp",
          "type": "uint256"
        },
        {
          "internalType": "bool",
          "name": "active",
          "type": "bool"
        }
      ],
      "stateMutability": "view",
      "type": "function"
    },
    {
      "inputs": [],
      "name": "roleManager",
      "outputs": [
        {
          "internalType": "contract RoleManager",
          "name": "",
          "type": "address"
        }
      ],
      "stateMutability": "view",
      "type": "function"
    },
    {
      "inputs": [
        {
          "internalType": "string",
          "name": "_cid",
          "type": "string"
        },
        {
          "internalType": "string",
          "name": "_name",
          "type": "string"
        }
      ],
      "name": "uploadExam",
      "outputs": [],
      "stateMutability": "nonpayable",
      "type": "function"
    },
    {
      "inputs": [
        {
          "internalType": "uint256",
          "name": "_id",
          "type": "uint256"
        }
      ],
      "name": "toggleExamStatus",
      "outputs": [],
      "stateMutability": "nonpayable",
      "type": "function"
    }
  ],
  "bytecode": "0x608060405234801561000f575f80fd5b50604051610c2e380380610c2e83398101604081905261002e91610079565b5f80546001600160a01b039384166001600160a01b031991821617909155600180549290931691161790556100aa565b80516001600160a01b0381168114610074575f80fd5b919050565b5f806040838503121561008a575f80fd5b6100938361005e565b91506100a16020840161005e565b90509250929050565b610b77806100b75f395ff3fe608060405234801561000f575f80fd5b506004361061005f575f3560e01c8062435da5146100635780630dfb1dbf146100925780634198cb3f146100a95780635a2d6ebd146100cd5780637f56446b146100e0578063e6913bdb146100f5575b5f80fd5b5f54610075906001600160a01b031681565b6040516001600160a01b0390911681526020015b60405180910390f35b61009b60035481565b604051908152602001610089565b6100bc6100b73660046106bb565b610108565b60405161008995949392919061071f565b600154610075906001600160a01b031681565b6100f36100ee36600461082a565b610254565b005b6100f36101033660046106bb565b6104a6565b60026020525f90815260409020805481906101229061088a565b80601f016020809104026020016040519081016040528092919081815260200182805461014e9061088a565b80156101995780601f1061017057610100808354040283529160200191610199565b820191905f5260205f20905b81548152906001019060200180831161017c57829003601f168201915b505050600184015460028501805494956001600160a01b039092169491935091506101c39061088a565b80601f01602080910402602001604051908101604052809291908181526020018280546101ef9061088a565b801561023a5780601f106102115761010080835404028352916020019161023a565b820191905f5260205f20905b81548152906001019060200180831161021d57829003601f168201915b50505050600383015460049093015491929160ff16905085565b604051662a22a0a1a422a960c91b602082015260270160408051808303601f190181529082905280516020909101205f54634427673360e01b835233600484015290916001600160a01b03909116906344276733906024015f60405180830381865afa1580156102c6573d5f803e3d5ffd5b505050506040513d5f823e601f3d908101601f191682016040526102ed91908101906108c2565b6040516020016102fd9190610934565b60405160208183030381529060405280519060200120146103655760405162461bcd60e51b815260206004820152601d60248201527f4f6e6c7920546561636865722063616e2075706c6f6164206578616d7300000060448201526064015b60405180910390fd5b60038054905f6103748361094f565b90915550506040805160a08101825283815233602080830191909152818301849052426060830152600160808301526003545f908152600290915291909120815181906103c190826109bd565b5060208201516001820180546001600160a01b0319166001600160a01b03909216919091179055604082015160028201906103fc90826109bd565b50606082015160038201556080909101516004909101805460ff19169115159190911790556001546040516001600160a01b039091169063faf324fd903090610449908590602001610a79565b6040516020818303038152906040526040518363ffffffff1660e01b8152600401610475929190610aae565b5f604051808303815f87803b15801561048c575f80fd5b505af115801561049e573d5f803e3d5ffd5b505050505050565b604051662a22a0a1a422a960c91b602082015260270160408051808303601f190181529082905280516020909101205f54634427673360e01b835233600484015290916001600160a01b03909116906344276733906024015f60405180830381865afa158015610518573d5f803e3d5ffd5b505050506040513d5f823e601f3d908101601f1916820160405261053f91908101906108c2565b60405160200161054f9190610934565b60405160208183030381529060405280519060200120146105b25760405162461bcd60e51b815260206004820152601d60248201527f4f6e6c7920546561636865722063616e2075706c6f6164206578616d73000000604482015260640161035c565b5f818152600260205260409020600101546001600160a01b0316331461060a5760405162461bcd60e51b815260206004820152600d60248201526c4e6f7420796f7572206578616d60981b604482015260640161035c565b5f818152600260205260408120600401805460ff19811660ff9182161590811790925516610660576040518060400160405280601081526020016f4465616374697661746564206578616d60801b815250610688565b6040518060400160405280600e81526020016d416374697661746564206578616d60901b8152505b60015460405163faf324fd60e01b81529192506001600160a01b03169063faf324fd906104759030908590600401610af9565b5f602082840312156106cb575f80fd5b5035919050565b5f5b838110156106ec5781810151838201526020016106d4565b50505f910152565b5f815180845261070b8160208601602086016106d2565b601f01601f19169290920160200192915050565b60a081525f61073160a08301886106f4565b6001600160a01b0387166020840152828103604084015261075281876106f4565b606084019590955250509015156080909101529392505050565b634e487b7160e01b5f52604160045260245ffd5b604051601f8201601f1916810167ffffffffffffffff811182821017156107a9576107a961076c565b604052919050565b5f67ffffffffffffffff8211156107ca576107ca61076c565b50601f01601f191660200190565b5f82601f8301126107e7575f80fd5b81356107fa6107f5826107b1565b610780565b81815284602083860101111561080e575f80fd5b816020850160208301375f918101602001919091529392505050565b5f806040838503121561083b575f80fd5b823567ffffffffffffffff80821115610852575f80fd5b61085e868387016107d8565b93506020850135915080821115610873575f80fd5b50610880858286016107d8565b9150509250929050565b600181811c9082168061089e57607f821691505b6020821081036108bc57634e487b7160e01b5f52602260045260245ffd5b50919050565b5f602082840312156108d2575f80fd5b815167ffffffffffffffff8111156108e8575f80fd5b8201601f810184136108f8575f80fd5b80516109066107f5826107b1565b81815285602083850101111561091a575f80fd5b61092b8260208301602086016106d2565b95945050505050565b5f82516109458184602087016106d2565b9190910192915050565b5f6001820161096c57634e487b7160e01b5f52601160045260245ffd5b5060010190565b601f8211156109b8575f81815260208120601f850160051c810160208610156109995750805b601f850160051c820191505b8181101561049e578281556001016109a5565b505050565b815167ffffffffffffffff8111156109d7576109d761076c565b6109eb816109e5845461088a565b84610973565b602080601f831160018114610a1e575f8415610a075750858301515b5f19600386901b1c1916600185901b17855561049e565b5f85815260208120601f198616915b82811015610a4c57888601518255948401946001909101908401610a2d565b5085821015610a6957878501515f19600388901b60f8161c191681555b5050505050600190811b01905550565b6d02ab83637b0b232b21032bc30b6960951b81525f8251610aa181600e8501602087016106d2565b91909101600e0192915050565b60608152600c60608201526b115e185b555c1b1bd859195960a21b608082015260018060a01b038316602082015260a060408201525f610af160a08301846106f4565b949350505050565b606081526011606082015270115e185b54dd185d1d5cd0da185b99d959607a1b608082015260018060a01b038316602082015260a060408201525f610af160a08301846106f456fea26469706673582212205ea33c78929934f7aa6de2264cc18944279974213568fd4e46bc8869533b745964736f6c63430008140033",
  "immutableReferences": {},
  "source": "// SPDX-License-Identifier: MIT\npragma solidity ^0.8.0;\nimport \"./RoleManager.sol\";\nimport \"./AuditLog.sol\";\n\ncontract ExamManager {\n    RoleManager public roleManager;\n    AuditLog public auditLog;\n\n    struct Exam {\n        string cid;\n        address teacher;\n        string name;\n        uint256 timestamp;\n        bool active;\n    }\n\n    mapping(uint256 => Exam) public exams;\n    uint256 public examCount;\n\n    constructor(address _roleManagerAddress, address _auditLogAddress) {\n        roleManager = RoleManager(_roleManagerAddress);\n        auditLog = AuditLog(_auditLogAddress);\n    }\n\n    modifier onlyTeacher() {\n        require(\n            keccak256(abi.encodePacked(roleManager.getRole(msg.sender))) == keccak256(abi.encodePacked(\"TEACHER\")),\n            \"Only Teacher can upload exams\"\n        );\n        _;\n    }\n\n    function uploadExam(string memory _cid, string memory _name) external onlyTeacher {\n        examCount++;\n        exams[examCount] = Exam({\n            cid: _cid,\n            teacher: msg.sender,\n            name: _name,\n            timestamp: block.timestamp,\n            active: true\n        });\n        auditLog.logEvent(\"ExamUploaded\", address(this), string(abi.encodePacked(\"Uploaded exam \", _name)));\n    }\n\n    function toggleExamStatus(uint256 _id) external onlyTeacher {\n        require(exams[_id].teacher == msg.sender, \"Not your exam\");\n        exams[_id].active = !exams[_id].active;\n        string memory desc = exams[_id].active ? \"Activated exam\" : \"Deactivated exam\";\n        auditLog.logEvent(\"ExamStatusChanged\", address(this), desc);\n    }\n}\n",
  "sourcePath": "D:\\Downloads\\chainedu-nexus-main\\chainedu-nexus-main\\backend\\contracts\\ExamManager.sol",
  "compiler": {
    "name": "solc",
    "version": "0.8.20+commit.a1b79de6.Emscripten.clang"
  },
  "schemaVersion": "3.4.16",
  "updatedAt": "2026-03-23T18:29:34.231Z",
  "devdoc": {
    "kind": "dev",
    "methods": {},
    "version": 1
  },
  "userdoc": {
    "kind": "user",
    "methods": {},
    "version": 1
  }
}