{
  "contractName": "RoleManager",
  "abi": [
    {
      "inputs": [
        {
          "internalType": "address",
          "name": "_auditLogAddress",
          "type": "address"
        }
      ],
      "stateMutability": "nonpayable",
      "type": "constructor"
    },
    {
      "inputs": [],
      "name": "auditLog",
      "outputs": [
        {
          "internalType": "contract AuditLog",
          "name": "",
          "type": "address"
        }
      ],
      "stateMutability": "view",
      "type": "function"
    },
    {
      "inputs": [
        {
          "internalType": "address",
          "name": "_user",
          "type": "address"
        }
      ],
      "name": "grantTeacher",
      "outputs": [],
      "stateMutability": "nonpayable",
      "type": "function"
    },
    {
      "inputs": [
        {
          "internalType": "address",
          "name": "_user",
          "type": "address"
        }
      ],
      "name": "grantStudent",
      "outputs": [],
      "stateMutability": "nonpayable",
      "type": "function"
    },
    {
      "inputs": [
        {
          "internalType": "address",
          "name": "_user",
          "type": "address"
        }
      ],
      "name": "revokeRole",
      "outputs": [],
      "stateMutability": "nonpayable",
      "type": "function"
    },
    {
      "inputs": [
        {
          "internalType": "address",
          "name": "_user",
          "type": "address"
        }
      ],
      "name": "getRole",
      "outputs": [
        {
          "internalType": "string",
          "name": "",
          "type": "string"
        }
      ],
      "stateMutability": "view",
      "type": "function"
    }
  ],
  "bytecode": "0x608060405234801561000f575f80fd5b506040516107b73803806107b783398101604081905261002e91610110565b335f90815260208190526040902080546001919060ff191682800217905550600180546001600160a01b0319166001600160a01b03831690811790915560405163faf324fd60e01b815260606004820152600b60648201526a149bdb1951dc985b9d195960aa1b608482015233602482015260a06044820152601460a48201527f53797374656d2041646d696e204372656174656400000000000000000000000060c482015263faf324fd9060e4015f604051808303815f87803b1580156100f4575f80fd5b505af1158015610106573d5f803e3d5ffd5b505050505061013d565b5f60208284031215610120575f80fd5b81516001600160a01b0381168114610136575f80fd5b9392505050565b61066d8061014a5f395ff3fe608060405234801561000f575f80fd5b5060043610610055575f3560e01c8063313efd2f14610059578063442767331461006e5780635a2d6ebd1461009757806380e52e3f146100c2578063f59d3abe146100d5575b5f80fd5b61006c61006736600461048f565b6100e8565b005b61008161007c36600461048f565b6101ae565b60405161008e91906104bc565b60405180910390f35b6001546100aa906001600160a01b031681565b6040516001600160a01b03909116815260200161008e565b61006c6100d036600461048f565b6102d0565b61006c6100e336600461048f565b610402565b6001335f9081526020819052604090205460ff16600381111561010d5761010d610507565b146101335760405162461bcd60e51b815260040161012a9061051b565b60405180910390fd5b6001600160a01b038181165f9081526020819052604090819020805460ff19166003179055600154905163faf324fd60e01b815291169063faf324fd9061017e90849060040161054b565b5f604051808303815f87803b158015610195575f80fd5b505af11580156101a7573d5f803e3d5ffd5b5050505050565b606060016001600160a01b0383165f9081526020819052604090205460ff1660038111156101de576101de610507565b0361020457505060408051808201909152600581526420a226a4a760d91b602082015290565b60026001600160a01b0383165f9081526020819052604090205460ff16600381111561023257610232610507565b0361025a5750506040805180820190915260078152662a22a0a1a422a960c91b602082015290565b60036001600160a01b0383165f9081526020819052604090205460ff16600381111561028857610288610507565b036102b057505060408051808201909152600781526614d5155111539560ca1b602082015290565b50506040805180820190915260048152634e4f4e4560e01b602082015290565b6001335f9081526020819052604090205460ff1660038111156102f5576102f5610507565b146103125760405162461bcd60e51b815260040161012a9061051b565b336001600160a01b0382160361036a5760405162461bcd60e51b815260206004820152601c60248201527f43616e6e6f74207265766f6b65206f776e2061646d696e20726f6c6500000000604482015260640161012a565b6001600160a01b038181165f8181526020819052604090819020805460ff19169055600154905163faf324fd60e01b815260606004820152600b60648201526a149bdb1954995d9bdad95960aa1b6084820152602481019290925260a06044830152601460a48301527341646d696e207265766f6b65642061636365737360601b60c48301529091169063faf324fd9060e40161017e565b6001335f9081526020819052604090205460ff16600381111561042757610427610507565b146104445760405162461bcd60e51b815260040161012a9061051b565b6001600160a01b038181165f9081526020819052604090819020805460ff19166002179055600154905163faf324fd60e01b815291169063faf324fd9061017e9084906004016105c1565b5f6020828403121561049f575f80fd5b81356001600160a01b03811681146104b5575f80fd5b9392505050565b5f6020808352835180828501525f5b818110156104e7578581018301518582016040015282016104cb565b505f604082860101526040601f19601f8301168501019250505092915050565b634e487b7160e01b5f52602160045260245ffd5b60208082526016908201527521b0b63632b91034b9903737ba1030b71030b236b4b760511b604082015260600190565b606081525f61057560608301600b81526a149bdb1951dc985b9d195960aa1b602082015260400190565b6001600160a01b0393909316602083810191909152828403604093840152601a84527f41646d696e206772616e7465642053545544454e5420726f6c6500000000000090840152500190565b606081525f6105eb60608301600b81526a149bdb1951dc985b9d195960aa1b602082015260400190565b6001600160a01b0393909316602083810191909152828403604093840152601a84527f41646d696e206772616e746564205445414348455220726f6c650000000000009084015250019056fea2646970667358221220393498ee5ffce90794f49d7a1050f0e242a63465027e7593dcaa58b1d0e42ead64736f6c63430008140033",
  "immutableReferences": {},
  "source": "// SPDX-License-Identifier: MIT\npragma solidity ^0.8.0;\nimport \"./AuditLog.sol\";\n\ncontract RoleManager {\n    enum Role { NONE, ADMIN, TEACHER, STUDENT }\n    mapping(address => Role) private userRoles;\n    \n    AuditLog public auditLog;\n\n    constructor(address _auditLogAddress) {\n        userRoles[msg.sender] = Role.ADMIN;\n        auditLog = AuditLog(_auditLogAddress);\n        auditLog.logEvent(\"RoleGranted\", msg.sender, \"System Admin Created\");\n    }\n\n    modifier onlyAdmin() {\n        require(userRoles[msg.sender] == Role.ADMIN, \"Caller is not an admin\");\n        _;\n    }\n\n    function grantTeacher(address _user) external onlyAdmin {\n        userRoles[_user] = Role.TEACHER;\n        auditLog.logEvent(\"RoleGranted\", _user, \"Admin granted TEACHER role\");\n    }\n\n    function grantStudent(address _user) external onlyAdmin {\n        userRoles[_user] = Role.STUDENT;\n        auditLog.logEvent(\"RoleGranted\", _user, \"Admin granted STUDENT role\");\n    }\n\n    function revokeRole(address _user) external onlyAdmin {\n        require(_user != msg.sender, \"Cannot revoke own admin role\");\n        userRoles[_user] = Role.NONE;\n        auditLog.logEvent(\"RoleRevoked\", _user, \"Admin revoked access\");\n    }\n\n    function getRole(address _user) external view returns (string memory) {\n        if (userRoles[_user] == Role.ADMIN) return \"ADMIN\";\n        if (userRoles[_user] == Role.TEACHER) return \"TEACHER\";\n        if (userRoles[_user] == Role.STUDENT) return \"STUDENT\";\n        return \"NONE\";\n    }\n}\n",
  "sourcePath": "D:\\Downloads\\chainedu-nexus-main\\chainedu-nexus-main\\backend\\contracts\\RoleManager.sol",
  "compiler": {
    "name": "solc",
    "version": "0.8.20+commit.a1b79de6.Emscripten.clang"
  },
  "schemaVersion": "3.4.16",
  "updatedAt": "2026-03-23T18:29:34.235Z",
  "devdoc": {
    "kind": "dev",
    "methods": {},
    "version": 1
  },
  "userdoc": {
    "kind": "user",
    "methods": {},
    "version": 1
  }
}